:020000040800F2
:10000000E8080020CD5C0008AD5B0008AF5B00088D
:1000100000000000000000000000000000000000E0
:10002000000000000000000000000000B15B0008BC
:100030000000000000000000B35B0008B55B000892
:10004000C3110008000000001B1200082F15000853
:1000500043180008471800084B1800083B28000800
:10006000000000005B5C0008F75C0008F95C000819
:10007000FB5C0008FD5C0008FF5C0008000000005D
:10008000015D0008BD5B000800000000035D000882
:10009000055D0008075D0008095D00080B5D0008AC
:1000A0000D5D00080F5D0008115D0008C75B0008CA
:1000B000135D0008F0B5A5B004000D002A9E00BF36
:1000C00073A003C86F4603C7089506A83B21465492
:1000D0000020119004940392029313E0039C3500D6
:1000E000049F21780898B8470890002800D1B6E00E
:1000F0001198401C1190641C6D1EF2D10497039856
:100100008019039003980078252809D100260B96C2
:100110000C960D960E960F9610960021039C0FE0FC
:100120006A460021C943039801F030F8060001D166
:10013000119896E0D2D50126E1E70800012101439C
:10014000641C20782028F8D023280CD02B2804D039
:100150002D2805D0302809D085E008000221EEE7DF
:1001600008000421EBE708000821E8E70800102157
:10017000E5E713960AE0139A444B9A4205DA930096
:100180009A185200101830381390641C207802001E
:10019000303A0A2AEFD320782E2803D00020C0431B
:1001A000129028E0641C20782A280AD1029800685E
:1001B000029A10600268001D029B18601292641C73
:1001C00019E02D2802D12D22641C00E00022129695
:1001D0000CE0002A09D1129B2C4DAB4205DA9D00A0
:1001E000EB185B00181830381290641C207803005C
:1001F000303B0A2BEDD306AD29872778390000BFA5
:1002000025A000F0D5FF002801D0641C00E00027E5
:100210003A202F54285C682804D1207868280AD115
:10022000622005E06C2806D120786C2803D171206B
:100230003A216854641C16A80A902378029A06A9E9
:10024000049800F067F8611C0391002807D116AAF2
:1002500006A9049800F0F8F9002800D452E700201D
:10026000C04325B0F0BD2A2883D1029802680260FD
:100270001068121D029B1A601390002804D5424298
:100280001392080004210143641C84E7CBCCCC0CFE
:100290000000000000000000686A6C747A4C0000E6
:1002A0000B0062281CD068280DD06A2803D06C2867
:1002B00023D0712821D11A68D21D072082431A60E9
:1002C00003CA1A607047002A19681960086803D0C9
:1002D000091D196000B217E0091D196080B217E00E
:1002E000002A19681960086803D0091D196040B216
:1002F0000AE0091D1960C0B20AE0002A19681960F5
:10030000086803D0091D1960C1177047091D1960DD
:10031000002170477CB50C0011001E0025693200D9
:10032000253A00D14AE11C3A00D182E0121F022A8C
:1003300000D87EE00E3A00D104E1521F58D0093AAD
:1003400077D0921E16D0521E34D0521E022A70D977
:10035000121F2FD0521F00D194E0521E48D0521EBF
:1003600000D1DEE0D21E00D1FAE0921E40D0D21EB3
:100370003ED029E13A22A25C6C2A09D06069421C75
:1003800062610A680A601368121D0A602B5425E135
:100390000A680A601368121D0A6000930021019127
:1003A000C94321636A46210000F0D0F9002800D437
:1003B00014E100E101223A20205CFFF771FF03C441
:1003C000083C002904DA6069411C61612D210DE0BF
:1003D000208F810704D56069411C61612B2105E0F4
:1003E000C00721D56069411C6161202129541BE0AF
:1003F00000223A20205CFFF753FF03C4083C38205A
:10040000205C000710D503CC083C002901D100284E
:100410000AD020203043782806D160693021295441
:10042000401C411C61612E5460692818E060310055
:1004300084E00868C01D0722904308600CC808606B
:100440000CC4083C03CC083CC80F04D06069411CB4
:1004500061612D210DE0208F810704D56069411C69
:1004600061612B2105E0C00704D56069411C616111
:100470002021295460692818E0603100200000F034
:1004800083FAABE03B20205C002803D00024E44347
:1004900053A074E03A20205C622808D0682823D05A
:1004A0006A2812D06C282ED071280ED02BE00A6852
:1004B0000A601068121D0A60002803D10024E4437A
:1004C0004DA05CE0E16A017088E00868086002689D
:1004D000001D0860002A03D10024E44346A04EE03A
:1004E000E06AC11703C279E00A680A601068121D49
:1004F0000A60002804D10024E44300BF3EA03EE08F
:10050000E16A01806AE00A680A601068121D0A60E8
:10051000002803D10024E44337A030E0E16A016001
:100520005CE0086808600268001D08600020C043A5
:100530000021104003C4083CE5607821200000F051
:100540006BF94BE06C223A23E2540B680B601A689B
:100550001B1D0B60002A29D10024E4432CA00EE0CF
:100560003A22A25C6C2AF0D0086808600568001D79
:100570000860E560002D06D10024E4432BA000F0C4
:1005800021FE201A76BD266B002E03D5280000F030
:100590003DFE09E032000021280000F03FFE002867
:1005A00001D0401B00E03000A06117E0210000F006
:1005B000CDF8002812D50020C04376BD6069411CEB
:1005C00061612521295409E06169481C6061252287
:1005D0006A54310002D0411C61612E54002076BD66
:1005E0007072696E74665F733A20256E2064697359
:1005F000616C6C6F776564007072696E74663A2026
:1006000062616420256E20617267756D656E74008D
:100610007072696E74665F733A2062616420256C43
:100620007320617267756D656E7400007072696E1B
:1006300074665F733A20626164202573206172677B
:10064000756D656E74000000F8B506000C001700AB
:10065000606B6169401A216A401AA169401A616A97
:10066000401AE169401AA16A401A00903820205CC3
:1006700040070ED4009800280BDD05462021A06815
:10068000B047A06000285DD0E06A401CE0626D1EAB
:10069000F4D13A0063692100300000F0E9FC002841
:1006A00050D1256A002D0ADD3021A068B047A06036
:1006B000002847D0E06A401CE0626D1EF4D1A369B7
:1006C000E2682100300000F0D3FC00283AD1656ACE
:1006D000002D0ADD3021A068B047A060002831D08D
:1006E000E06A401CE0626D1EF4D1E369E068A16934
:1006F00042182100300000F0BBFC002822D1A56A7E
:10070000002D0ADD3021A068B047A060002819D074
:10071000E06A401CE0626D1EF4D13820205C400786
:100720000ED5009800280BDD05462021A068B047B3
:10073000A060002806D0E06A401CE0626D1EF4D183
:100740000020F2BD0020C043F2BD0000F0B5A7B00C
:1007500004000D0016002F6B002F00D5874F00F00E
:1007600068FD696B0A1800BF29A003C804AB03C366
:10077000812A4AD200200694009503900024002F7D
:1007800032DD04AA316801A800F005FD05003CD463
:100790003068002801D16D1E37D4AF4224DB0098A9
:1007A0004069401981280BD30098446307AA009937
:1007B0000698FFF749FF0390002815D4009844617C
:1007C0000098406902902A0001A907A8029BC0185E
:1007D00000F04EFD029840190099486130680028E9
:1007E00002D0361D7F1BCAE7069B009C0398002899
:1007F00004D107AA21001800FFF726FF002802D124
:1008000000216161616327B0F0BD0020C043FAE7B9
:100810000000000000000000F2B586B00400256969
:100820006F2901D1082707E00846202101437829D4
:1008300001D00A2700E010273C2603CC083C04AA7C
:1008400003C26A46127E642A03D06A46127E692A6F
:1008500009D1002907DA04A803C800220023121ACC
:100860008B4104A80CC004A803C8002920D100288B
:100870001ED1206B00281BD1082F4ED13820205CC0
:1008800000074AD53B26302046E000290ED5382106
:10089000615C14220A40102A08D1616B6269891ACE
:1008A000226A891A081A002800DD206207B0F0BD0C
:1008B0000294009504A830C8761E019620002900F5
:1008C0003A00FB1700F0E1FC3032D0B23A2803DBEB
:1008D0006846007E51381218009882552000290081
:1008E0003A00FB1700F0D1FC04000D0001D1002CF0
:1008F00005D00298C068009989198842DCD3029C0F
:10090000009D082F09D13820205C000705D5A85D7F
:10091000302802D0761E3020A8553C20801BA061D4
:10092000A919E160216B8842AFDA081A2062208F92
:10093000134901402187B9E7F8B50026114F04009B
:100940000D00009214E0C00707D532003B002000E4
:10095000290000F0CFFC04000D000098401000902A
:100960003000390032003B0000F0C4FC06000F00EC
:1009700000980028E7D120002900F4BDFFFFFF7F89
:10098000EFFF000000002440F3B593B005AA03C8B0
:1009900002AB03C314A8007820210143684601700C
:1009A00061290BD01398006B002801D5062003E0C5
:1009B00004D1672902D1012013990863139803C851
:1009C0004C006415641C13D10B0311D00320139940
:1009D000886114A8007861381A2804D255497944EE
:1009E000FF31533116E054497944FF314D3111E064
:1009F0004C006415641C13D10B0311D1032013990F
:100A0000886114A8007861381A281BD34B497944AF
:100A1000FF312B3103221398C06800F029FCC2E19A
:100A200010AB03C38CA6C0CE10A803C839408025E4
:100A30006D03A9420BD20023019310AB30CB604071
:100A400069400EE03E497944FF310939E2E7080D7B
:100A5000834C2418019410A803C8834D0D4081498C
:100A60002943139B03C368460078612813D1139868
:100A7000C06830210170811C139BD96014A90978CA
:100A8000612901D1782100E0582141701398406913
:100A9000801C13994861139830C826402F4005D117
:100AA000002E03D100206B46188173E16846007860
:100AB000612800D0A8E01398006B002801D5212000
:100AC00000E0401C0090009F7F1C02A803C8002289
:100AD000002300F0D1FC02D280200006454001989E
:100AE000001F019069460A7505A8461C002F00DC0E
:100AF0005FE120002900002280235B0300F0D5FC89
:100B000000D956E169004A0D11001C31002A19D0A4
:100B1000002917DDB24A914206DB10052900802228
:100B200012061140014311E04F4A2A4008051043C4
:100B300005000DE088510000885100008C51000034
:100B400084510000290080221206114000240D006B
:100B50002000290000F0C2FC0290FF1F002F09DDD9
:100B600000F0F6FC02000B002000290000F05DFD03
:100B700004000D00F01D0721029A04E0401E130737
:100B80001B0F03701211002A01DD491EF6D5491E04
:100B900000D50AE1401E00220270F8E7002304009D
:100BA00005AD2D1901E0401E6D1E641E2E789E427B
:100BB000F9D00F2B04D14B1C1B5D5B1C491C0B5542
:100BC000002C04D505AA401C0199091D0191431E62
:100BD00011D4D41814A9097825783035EEB23A2EFC
:100BE00002DB0E003A3EAD1925705B1E641E002B21
:100BF000F2D514AB19701399096B002900D4C6E023
:100C0000411E139B1963C2E002A830C86D006D0835
:100C1000019874494843744900F07EFD0190072013
:100C20000199401A029005DD024620002900FFF7D5
:100C300083FE0AE0424200206C49FFF77DFE02007D
:100C40000B002000290000F096FD6A461278662A03
:100C50000CD1019A0A320AE0FFFFFFFFFFFFFF7F7E
:100C600002FCFFFF0000E03FFFFF0F800622139B06
:100C70001B6B9A18142A00DD142230236C4623754E
:100C800005AB5C1C02E002A803C8049A002A3CDD04
:100C900002AB03C3049202A803C800F031FC0F901A
:100CA00006460834042530000A2100F049FD0F00F3
:100CB00030000A2100F044FD06003037601E077046
:100CC00030000A2100F03CFD0F0030000A2100F046
:100CD00037FD0600A41E303727706D1EE3D108349F
:100CE0000498083804900028CDDD0F9800F020FC0F
:100CF00002000B0002A803C800F097FC00223C4B46
:100D000000F0F8FA02AA03C2C5E705A8401C211AA0
:100D100005A8421C019802E0491E401E521C13788F
:100D2000302BF9D0019068460078662802D10198EE
:100D3000401C06E068460078652801D1012000E0EB
:100D40000020139B1B6B1818814200DA481E0028F4
:100D50001DD4884204DA115C352901DB392300E017
:100D600030230400511E0D1901E0401E6D1E641E4B
:100D70002E789E42F9D0392B02D1135D5B1C13559E
:100D8000002C04D50A00401C0199491C01916946B8
:100D90000881019800B20090029B1BB214A8017850
:100DA000139800F027F815B0F0BDC61D002F00DD28
:100DB0009FE605A9481C331A05A8421C00988342E7
:100DC00000DC1800002800D515E7984200DBE5E6B6
:100DD0004B1C1B5C072B00DCE0E60F23DFE600006A
:100DE000FF07000097750000A08601000000F03F9B
:100DF00084D79741F6B583B006000F001C0000F0C1
:100E0000CFF9406A007869460870356B002C03DC26
:100E1000012400BFA3A0049020203843662803D1FA
:100E20000A9F3FB27F1C1AE0672800D085E00A982D
:100E300000B20321C943884200DA82E0A84200DB05
:100E40007FE00A9F3FB27F1C3820305C000702D44D
:100E5000AC4200DA250038B22D1A00D50025B16960
:100E6000F06840183AB2002A26DC491C3022027091
:100E7000002D03DC3820305C000704D5684600787C
:100E8000F2685054491CB16138B241428D4200DAD7
:100E90006F423FB278427062ED19A54200DA2C0031
:100EA00024B2F46122000499F068B369C01800F01C
:100EB000DFF9281BB062C3E0944218DA22000499DB
:100EC00000F0D6F9B0690019B0613FB2391B716208
:100ED000002D03DC3821715C090706D569460978C5
:100EE000F2681154F069401CF061B562A8E0049901
:100EF00000F0BEF938B2B1690918E41B002D03DC1B
:100F00003822B25C120704D56A461278F3685A5444
:100F1000491CB16121B28D4200DA2C0022B2049941
:100F20000918F068B369C01800F0A2F924B2B069DA
:100F30000019B061281B706282E0612F11D1702707
:100F400012E0AC4204DA3821715C090700D42500B4
:100F50006D1E00D50025672F01D1652704E04527C8
:100F600002E0412F00D15027B069411CB161049AC1
:100F70001278F3681A540498401C0490002D03DC86
:100F80003820305C000718D5481CB0616A461278DA
:100F9000F3685A54002D10DD641E21B28D4200DA30
:100FA0002C0022B20499F368181800F061F924B2F9
:100FB000B0690019B061281B7062F068B16940180F
:100FC00007700A9909B2002904D42B214170801CB2
:100FD000049006E02D224270801C0490484269462D
:100FE000088500246D460A9800B205E00A2100F049
:100FF00093FB2970641C6D1C00B20028F6DC012CE8
:1010000009DC20203843652805D130200499087078
:101010000498401C0490002C28D1302004990870BA
:101020000498401C07E0641E6946095D3031017078
:10103000401C002CF7DCF168B2698918401AF06195
:101040003820305C1421014010290DD17069B1693C
:101050004018716A4018F1694018B16A4018716B04
:10106000884201DA081A306205B0F0BD0498E0E762
:10107000F8B50024002B13D007000E0014001D004B
:101080002178B068B847B060002807D0F06A401CEB
:10109000F062641C6D1EF3D1002401E00024E443DF
:1010A0002000F2BD3000F1B40168421841684808E0
:1010B000131800988068C9071ED5494640181BE0E0
:1010C0001778521C0770401C761EF9D1002C13D0E3
:1010D0001678521C89080D40032D01D11578521C39
:1010E000290271184D424119A41C05D00D78491CE4
:1010F0000570401C641EF9D19A420FD01178521C21
:10110000032503260E4002D11678F61C521C0C094A
:101110000F2CD9D114780F34521CD5E700980C301D
:10112000F2BC70472048704730B45368D418042B81
:101130000BDA002909D0057825700578002D04D038
:101140005B1C491E641C401CF1E7536030BC7047B7
:1011500038B500290ED01D001400FFF7E5FF6168C7
:1011600020006A6B90470122D243811A02D0491EA7
:1011700002D004E0012000E00020C04332BD002185
:10118000616032BD80B5DA6B904702BD80B5064B19
:10119000FFF7DEFF02BD80B5034BFFF7F3FF02BD93
:1011A0000248704700000000A40000206C000020EE
:1011B000C9B202788A4203D0401C002AF9D100202B
:1011C0007047FEE780B5002801D100BF07A006499F
:1011D0000B68002B03D022220021984701E000F089
:1011E0002BFB222002BD0000E0040020636F6E7321
:1011F000747261696E742068616E646C65723A2005
:10120000626164206D65737361676500431C0178DA
:10121000401C0942FBD1C01A7047FEE7C9B2521EFA
:1012200005D30378401C8B42F9D1401E7047002043
:10123000704780B5FFF776FF006C02BD70B4103ABE
:1012400003D378C9103A78C0FBD2530701D318C929
:1012500018C001D508C908C0D20704D30B88038081
:10126000891C801C002A01D50B78037070BC704764
:101270008B0701D18307E1D0124205D00B78491CBE
:101280000370401C521EF9D17047124224D099427B
:1012900028D970B500251B4202D00C00002109E0BE
:1012A0000024012649186441944200D3A41A7641CF
:1012B000F8D33100012601E0764109D200186441DB
:1012C0006D41A41A9D41F7D2A4185D41B619F5D31A
:1012D000300022002B0070BD1B42D8D108B500F0B1
:1012E000B1FA08BD01D19042D3D202000B00002117
:1012F00000207047F0B50E005E400125ED072E403E
:10130000B446AE0ADF184C18F44208D2F7420ED2A7
:10131000640D01D07F0D12D100206146F0BD05D1D2
:10132000F74201D87F0D05D10020C143F0BDFBD1AC
:10133000640DF9D00020C143490549088FE0E41944
:10134000C902DB0229432B43DB0A460DC0023143AD
:101350008E4630B487B295B27D432E0CADB2140CDC
:101360007C43A419260C240425439CB27C43A41975
:10137000190C7943270CC919A4B20F043C43090C7A
:10138000000C97B247432E0CBE193543ADB2170C73
:101390004743360CBF19A6B2BF193E043543240C8F
:1013A0003E0C36199FB24743BF19BCB23E0C891997
:1013B0001F0C47437F183E043443390C704680B2FB
:1013C00097B247432E0CBE193543ADB2170C4743B5
:1013D000360CBF19A6B2BF193E043543240C3E0C8F
:1013E00036199FB24743BF19BCB23E0C89191F0C76
:1013F00047437F183E043443390C77463F0C90B284
:1014000078432E0C80190604ADB22E43050CA0B211
:101410002D18120C7A435019020C80B2240CA41817
:101420009AB27A43121914042043120C89181B0C27
:101430007B43C91830BCEF0A394203D1B619404189
:101440004941641E6F12BF0DE41B0BDBFF19BC4248
:1014500011DA240500274208AE4178416141664611
:101460003143F0BD641C05D1401C6141CF0201D362
:101470004908F4E750E75DE730B4012464054D0006
:10148000EC420BD85D00EC4208D80C001C43640011
:101490000443144304D2994200D1904230BC7047B7
:1014A000FCD08B42FAD18242F8E730B401246405C3
:1014B0004D00EC420BD85D00EC4208D80C001C43F8
:1014C00064000443144304D28B4200D1824230BCF6
:1014D0007047FCD09942FAD19042F8E7F4464A1896
:1014E00005D200F00FF801D580174008604700F0E2
:1014F00009F80121C907884200D908004042604725
:101500004A1812D2400DC90208430121C9070843F5
:10151000520D40210901521A521C06D452421F3268
:1015200001D4D0407047C017704700207047FEE7D5
:10153000010042221201D21E004207D002D4521EE4
:101540000018FCD5C10A4005120589187047000033
:101550000100EED54042F446FFF7EBFF0122D2072F
:1015600011436047F0B40125ED070F005F404FD4F1
:101570008B4200D1824205D98446100062468C46D7
:1015800019006346DF184C18640D7F0D3AD0661CB5
:10159000760537D0E61B352E34DCDB022B43DB0A25
:1015A0000C0DC9022943C912202E0DDB1700203E65
:1015B00006D01F00F741F3405F400026012A774123
:1015C000C01871410DD217E01700F741F2405740A3
:1015D000F3415A40B340F3405A4000268018594125
:1015E0000AD3A21C52050FD0C207012F7241170067
:1015F0004008CB0718434908641C24054208AF4142
:1016000070416141F0BC7047641C21050020F9E77E
:101610006B4010E06B40ABE7F742F3D1E943F1E7F1
:101620002442EFD100200021ECE7F0B40125ED07C2
:101630000F005F40EED40C00871A9C4105D2C01BFE
:10164000A141D219634169406B40AE0ADF184C18C2
:10165000F442E1D2640D7F0DE2D0E61B362ED1DCE0
:10166000DB022B43DB0AA4460C0DC9022943C90A3D
:10167000012E28DC04D1D6075208DF073A435B0865
:10168000EF0A76429041994114D039423BD1B619C4
:1016900040414941761C394204D1761C0018494129
:1016A0003942FAD0B9436746B74208D9A41B24058A
:1016B0002143A7E70042EAD13642E8D1A2E7E40A93
:1016C000E10700209EE7202E0BDD203E1F00F340A7
:1016D000F7415F40012A002257417E4298419141E3
:1016E0000BE01700F741F2405740F3415A40B34036
:1016F000F3405A407E42904199410A0303D2641E4E
:10170000B619404149410027641E24054208AE41F4
:1017100078416141F0BC7047CA0F00D049420310C4
:101720005A400DD004B500D3404200F009F8009AA9
:10173000D20701D34942124200D5404204BD000005
:10174000094214D088420FD30122030C01D10004B6
:101750001204002300185B418B4200D35B1A5241F4
:10176000F8D319001000704701000020704708B539
:1017700000F06AF808BDF0B40E005E400125ED07E8
:101780002E40B446AE0ADF184C18F4423BD2F74262
:1017900041D2640D43D07F0D38D0E41BC902DB0277
:1017A00029432B43CF0ADB0A0600B61A9F4104D215
:1017B000641EB6197F41B6185F416812800D241867
:1017C0000018844222DAE80C0021B6197F41B61ACB
:1017D0009F4102D2B6185F413F1C40414941F4D3BA
:1017E000241C21DD2405B6197F41B61A9F4105D37B
:1017F0003743C60737430026012F704161416646D3
:101800003143F0BC7047FCD1F74205D20020C14300
:1018100049054908F3E704D00020C143F1E77F0DF3
:10182000FAD000206146ECE72442FAD1401C614125
:101830000F03F6D30020E2E780B5012000F006F8A0
:1018400001BDFEE77047FEE77047FEE780B500BFC9
:1018500000BF024A11001820ABBEFBE726000200C1
:1018600010B50A000223941E0221A140884202D32F
:10187000511E8B40C01A10BD80B5A6498860080073
:101880000C3000F0BBFE01BD80B50021002000F04F
:101890002FFF01BD10B5FF20543000F065FF04029A
:1018A000AA20400000F060FF01002000084310BDA6
:1018B000E0B50020694608700122C02000F0DAFE81
:1018C000684600786946087101980EBD9148007815
:1018D000704701B582B06846007AC0000821084010
:1018E0006946097A49000422114001436846007A9A
:1018F00040080222104008436946097A0907CA0FC6
:10190000024368460270002082490870012269463D
:10191000842000F08DFE07BD01B5012269468020BC
:1019200000F086FE68460078002801D1012000E022
:101930000220A9E080B500220021C12000F078FE3D
:101940000320A1E011B581B06846694609790170AC
:1019500001A949880A0A42708170A84800F0D0FAAB
:101960006C4C6078022802D1012000F0F7FC0322C1
:101970006946832000F05CFE0420207013BD11B581
:1019800081B0684669460979017001A949880A0A47
:1019900042708170994800F0B3FA5E4C607802287A
:1019A00002D1002000F0DAFC03226946822000F018
:1019B0003FFE0520207013BDE0B56B461870080A85
:1019C00058709970100AD8701A71052269469420CF
:1019D00000F02EFE05204F49087007BD80B500229B
:1019E0000021C52000F024FE4DE080B5002200213A
:1019F000D12000F01DFE01BD80B500220021D220C3
:101A000000F016FE01BD01B56846007841494870F6
:101A1000012269468A20A4E23E484078704738B5E2
:101A2000FFF786FD04000D000022754B0020802189
:101A3000C90501F0ABFA02000B0000207149FFF765
:101A40009AFE02000B0020002900FFF794FEFFF72A
:101A500057FD6946020C0A70020A4A708870032218
:101A6000862000F0E5FD31BD80B56A461230107069
:101A70005170022269468E2073E201B50122694647
:101A8000882000F0D5FD06202249087001BD80B5F0
:101A90006A4610705170022269468F2061E238B5A3
:101AA000040020781B4D6978814201D0FFF7ABFF1D
:101AB00068462178002909D0491E01290CD9891EC0
:101AC00013D0491E17D00B391BD01DE0617801706F
:101AD000A1784170E17816E0217901706179417057
:101AE000A17981706079A8700EE0E1790170217AA6
:101AF0004170617A07E0A17A0170E17A4170217B3F
:101B000001E0017041708170032269468B2000F072
:101B10008FFD31BD580000201CB504002078DE493F
:101B20004978814201D0FFF76EFF00216846227894
:101B3000002A09D0521E012A14D9921E1ED0521E0C
:101B40002AD00B3A31D033E061780170A17841702E
:101B5000E17881702179C17061790171A179417158
:101B6000E17924E0227A0270627A4270A27A82706D
:101B7000E27AC270227B0271417118E0617B0170D0
:101B8000A17B4170E17B8170217CC170617C01711E
:101B9000A17C4171E17C0AE0227D0270627D42708D
:101BA000A27D8270E27DC27000E00160818081715F
:101BB000072269468C2000F03BFD13BDF8B50700F5
:101BC0000C0002226946172000F054FDB24D6E460B
:101BD0006878012808D1B14800F0C6FDC00903D0DB
:101BE000AF4800F0C1FD04E068780428307800D1E7
:101BF000801C387070782070F1BD0000FFFF00007D
:101C000000003240A8CB8841FEB50400052201A99E
:101C10001D2000F02FFDA0484078207001A8017819
:101C200049084A4269460A70F8210722BF23FD2568
:101C30002678002E0BD0761E012E10D9B61E6ED03F
:101C4000761E00D1D3E00B3E00D11DE1F7BD6E46FC
:101C500036786670467876087742A7700FE06E4651
:101C6000367866704678802E01DAB60806E0FF27DF
:101C7000FF43F6197710BF0FBE19B610A670E778AC
:101C8000FE263E40B44686787606F70F6646374312
:101C9000E7702F40BC468678B606F70F7E00674691
:101CA0003E43E670FB273740BC468678F606F70FC2
:101CB000BE0067463E43E670F7273740BC4686784D
:101CC0003607F70FFE0067463E43E670EF273740C2
:101CD000BC4686787607F70F3E0167463E43E670BE
:101CE000DF273740BC468678B607F70F7E01674688
:101CF0003E43E67033408678F7077E0E1E43E6705B
:101D00002679FE233340C678B706FE0F1E432671A0
:101D10003540C378DE07B30F2B432371ADE06E4629
:101D200036786670467876087742A770E678FE27A0
:101D30003740BC4686787706FE0F67463E43E6701E
:101D400035408678B606F70F7E002E43E670FB25F9
:101D500035408678F606F70FBF002F43E770F7256A
:101D60002F40BC4686783607F70FFE0067463E4395
:101D70006F463E706E463678E6706E463678EF27D0
:101D80003740BC4686787607F70F3E0167463E43EC
:101D9000E670DF273740BC468678B607F70F7E012E
:101DA00067463E43E67033408678F7077E0E1E4353
:101DB000E6702679FC233340C678B6091E432671A7
:101DC000FB233340C678B606F70FBE001E432671CC
:101DD0003540C378DB06DE0FF6002E432671EF2375
:101DE0003340C578EE07F50E1D43257145E06E467C
:101DF00036786670467876087742A770E678FE27D0
:101E00003740BC4686787706FE0F67463E43E6704D
:101E100035408678B606F70F7E002E43E670FB2528
:101E200035408678F606F70FBE002E43E670F7259C
:101E3000354086783607F70FFE002E43E670EF2513
:101E4000354086787607F70F3E012E43E670DF2592
:101E500035408678B607F70F7E012E43E670334093
:101E60008578EE07750E1D43E5702379FE251D402C
:101E7000C378DE07F60F2E43267163791940007987
:101E800002400A436271F7BD0621200001F084F888
:101E90000F202070F7BD000058000020030900004B
:101EA0000109000080B500206946087001221F204A
:101EB00000F0E0FB684600784108484240B202BDAD
:101EC0003EB56C46050A25706070080AA070E17086
:101ED000100A20716271180AA071E3710822694624
:101EE0008D2000F0A5FB37BD80B502226946152084
:101EF00000F0C0FB6946087800024978084302BD3B
:101F000080B56946020A0A7048700222972028E0CC
:101F100001B582B06846007A8006800E6946087076
:101F20000122892000F084FB07BD01B5012269462A
:101F3000962016E080B500220021D52000F078FB25
:101F400001BD80B5213869460204120E0A7048703E
:101F5000022205E080B56846002101800222694620
:101F6000982000F065FB01BD01B5012269469E2065
:101F7000F7E701B5012269469B20F2E780B50A0028
:101F80000100002000F0F8FB01BD7CB504000E004C
:101F9000150069463000FFF711FE3278954201D2F4
:101FA000012076BD21006846007800F006FC002084
:101FB00076BD10B514000A000100002000F0DCFB23
:101FC0002000FFF7BFFC10BD10B504227C4C6478E4
:101FD000002C04D0032C13D0042C1BD01EE00522AF
:101FE000012804D01AD3032808D005D316E0754879
:101FF00000F066FB002010BD7348F9E77348F7E76F
:10200000012809D00AD3032802D007D2A048EFE75D
:10201000A048EDE7012801D1B448E9E7012010BD4F
:1020200038B50500C04C200000F09EFBF0220240B5
:102030002907090F11436AE180B56946020A0A704F
:1020400048705F484078002801D0032803D102225D
:10205000B64800F035FB01BD10B50400210EA348C1
:1020600000F046FB2102090E9D20000100F040FB1C
:102070002104090E9E4800F03BFBE1B2AC4843E06E
:1020800080B5AC48FFF7E8FF01BD80B56946020A9C
:102090000A7048704A484078002801D0032803D1CC
:1020A0000222A54800F00CFB01BD80B501004448A8
:1020B0004078002802D0C01E012802D89F4800F0B6
:1020C00017FB01BD10B59E4C200000F04DFB802198
:1020D0000143200000F00CFB0A3C200000F044FB10
:1020E000FE2101400FE010B5954C200000F03CFBB4
:1020F0004106490E200000F0FBFA0A3C200000F0E7
:1021000033FB01210143200000F0F2FA10BD38B585
:1021100004008C4D280000F027FBF02101400C4307
:1021200021002800F4E010B5874C002807D00128D2
:102130000DD1200000F018FBC021014304E0200075
:1021400000F012FB8106890E200000F0D1FA10BDCC
:1021500038B505001A48407802280BD17B4C200086
:1021600000F002FBAA018106890E1143C9B22000CA
:1021700000F0BEFA31BD80B56946020E0A70020C4D
:102180004A70020A8A70C8700D484078022803D14C
:1021900004226F4800F094FA01BD80B56946020E32
:1021A0000A70020C4A70020A8A70C87004484078AB
:1021B000022803D104228B4800F082FA01BD0000FE
:1021C00058000020CE090000D3090000D809000003
:1021D000F8B5002400255F494978022955D1070048
:1021E0000120FFF799FB5C4E300000F0BDFA0221A0
:1021F0000143300000F07CFA5B3E300000F0B4FA9E
:10220000CF2202403801302101401143300000F05C
:102210006FFA754800F0A8FA0604744800F0A4FAB2
:10222000010231430E00724800F09EFA304306006E
:102230000020FFF771FB002F03D07F1E022F17D95C
:1022400023E018213000FFF70BFBFFF781F90400B2
:102250000D0000F0CFF8FFF77BF902000B00200023
:102260002900FFF788FA00226E4BFFF743F80AE0D7
:102270003000FFF75DF90022704BFFF73BF80022BA
:102280006F4BFFF778FA04000D0020002900F4BD21
:10229000D4090000D909000010B50120FFF73CFB6C
:1022A0002D4C200000F060FA02210143200000F0D4
:1022B0001FFA5B3C200000F057FACF2101402000BC
:1022C00000F016FA5F4800F04FFA10BD10B5040098
:1022D00020484078022807D1210A5B4800F008FA1C
:1022E000E1B25A4800F004FA10BD0000CF09000026
:1022F000D109000038B5564C200000F035FA050031
:1023000020210143200000F0F3F9DF2129402000C3
:1023100000F0EEF931BD80B501007F2800DA7F21A1
:102320004C4800F0E5F901BDCD090000C8090000E6
:10233000D2090000D6BE898EC6090000C50900007A
:102340009F0800009E08000091080000310900006D
:1023500016090000580000207F09000080B569467A
:1023600008700122A320FCE5000000200021874A1C
:102370005278521E012A00D9704738B5844800F0BF
:10238000F3F90504834800F0EFF904022C43824876
:1023900000F0EAF9142120430003000BFFF760FA74
:1023A000FFF7D6F87DA20CCAFEF7A4FF04000D00CB
:1023B00000F020F8FFF7CCF802000B00002079496C
:1023C000FFF7D9F900227C4BFEF794FF02000B00C7
:1023D00020002900FFF7CFF934BD01206B49C870F8
:1023E0007047000012090000610900006209000046
:1023F000630900000020654989780A290BD0182953
:1024000007D0262903D0342906D16748704767488A
:102410007047674870476948704700205B49C8703B
:1024200070470000A3E1E14080B55848C178012918
:1024300001D1017101BD00F00FF801BD0000344071
:1024400000005940640900002C0900002D0900001B
:10245000230900001E090000F8B54C4C2078002824
:1024600062D0E078012806D1207901285CD172B6CB
:102470000020207162B66678FFF736FD05004D48F2
:10248000FFF73EFD012E01D9F61E4DD18026F60143
:102490002078042849D078D3062859D075D202274D
:1024A0003D4212D06806A06807D5002816D0816981
:1024B00000290AD00220884707E000280ED0406893
:1024C000002802D080473E480770E80606D5A0687D
:1024D00000280DD0C068002800D08047A80607D586
:1024E000A06800280DD08169002901D0002088470C
:1024F000354206D0A068002847D04069002800D0A7
:102500008047E80507D5A06800283ED081690029EA
:1025100001D003208847E80737D5A068002834D0C9
:102520000068002831D08047F1BDE80706D5A068D3
:1025300000282AD00068002800D08047354224D0E7
:10254000A068002821D0006900281ED08047F1BD76
:10255000E80411D5A804A06806D5002815D0016AA2
:10256000002912D0012005E000280ED0016A0029C0
:102570000BD000208847F1BD354206D0A068002866
:1025800003D04069002800D08047F1BD58000020EA
:10259000540900005509000056090000CDCCCCCCF0
:1025A000CCCCF83F0000994075190300EA320600D0
:1025B000D4650C00FFFF000000408F40A8CB18003E
:1025C0000600002080B513008F4A00920A00010027
:1025D0008E4800F07DFE01BD80B50A008A4B0100E7
:1025E0008A4800F07CFD01BD80B580210901902062
:1025F000C00501F011FA0128F7D001BD80B500F047
:1026000001F801BD10B5142001F026FA804C00221B
:102610000421200001F006FA322001F01DFA012207
:102620000421200001F0FEF9142001F015FA10BD7C
:10263000F2B505001400FFF7D7FF802676010022CF
:102640003100734801F0EEF9724F3D70220000999D
:10265000781CFEF70DFE641CA1B23800FFF7BCFF2A
:10266000012231006A4801F0DDF9842D01D0FFF725
:10267000BBFFF1BDFEB5971C664C20700023637054
:10268000002503E0AEB2A619B3706D1CA8B290424B
:10269000F8D3684602800191FFF7A6FF5C4E8025C3
:1026A0006D0100222900300001F0BCF9BAB22809FE
:1026B00021182000FFF786FF68460288812046E047
:1026C000F8B51400534D18222A70020A6A70A870D7
:1026D0002200E81CFEF7CCFDFFF786FF4C4F80265A
:1026E000760100223100380001F09CF9E41C58E02A
:1026F00002B501226946FFF7E3FF01BDFEB5171DD4
:10270000444C19232370030A6370A0700020E0700A
:10271000002503E0AEB2A61930716D1CABB2934236
:10272000F8D3684602800191FFF75EFF384E80259E
:102730006D0100222900300001F074F9BAB22809B5
:1027400021182000FFF73EFF6846028882204000E3
:1027500021180198FEF78CFD01222900300001F0BC
:1027600061F9FFF741FFF7BD80B501226946FFF728
:10277000C5FF6846007802BDF8B51400254D1A2241
:102780002A7068702200A81CFEF772FDFFF72CFF6C
:102790001F4F8026760100223100380001F042F9F7
:1027A000A41CA1B22800FFF717FF01223100380056
:1027B00001F038F9FFF718FFF1BDFEB50D00D71C89
:1027C000144C1B23237060700020A0700092002A1C
:1027D00003D01146E01C00F0DFFB0195FFF704FF7A
:1027E0000B4E80256D0100222900300001F01AF9FE
:1027F000BAB2280921182000FFF7E4FE009AFF2052
:10280000001DA5E700000000FFFF0000B803002046
:10281000000400483401002038B59024E4058021EC
:102820000901200001F0F8F805000221200001F064
:10283000F3F840002843C0B232BDFEE7F8B58EB0D1
:1028400004000D001498002802D00020149908609C
:1028500002A80CC002A803C89EA20CCA02400B40EA
:1028600001D1002A13D00020994922002B0001F049
:1028700007F90CD0954901F003F90BD102A803C860
:10288000080041004915491C04D1000302D1002071
:102890008F4939E368004015401C0DD08DA003C856
:1028A0002040294001D1002806D002A803C84800D2
:1028B0004015401C00D0F1E069004915491C04D1C5
:1028C000280302D0200029001EE302A803C8080044
:1028D00041004915491C04D1000302D002A803C8D5
:1028E00012E3012602A803C848004015401C00D18D
:1028F00084E002A803C80B0002185B4104D1002A3F
:1029000002D102A803C817E0AB4F5A0DBA1A352AF4
:1029100005DB0B0000208021090619400CE0202A6D
:1029200003DD203AD140914000E001D1002003E0D6
:10293000002A01DDD04090406A4603C202A803C8C5
:10294000002907DA002280231B06121A8B4104A8F3
:102950000CC001E004AA03C2684603C8002906DAD5
:10296000002280231B06121A8B411000190004AAB2
:102970000CCA8B4201D1824200D00026684603C8AF
:102980000B0002185B4104D1002A02D1684603C83B
:1029900017E0844F5A0DBA1A352A05DB0B000020C8
:1029A0008021090619400CE0202A03DD203AD1409D
:1029B000914000E001D1002003E0002A01DDD04079
:1029C0009040002E1AD06A460CCA002B06DA002668
:1029D00080273F06B61A9F4132003B00002906DAE5
:1029E000002680273F06361A8F41300039008B427F
:1029F00003D1824201D1002600E001266900491579
:102A0000491C08D1280306D1EC0F02A803C814D131
:102A1000C80F41D033E002A803C80800410049159F
:102A2000491C13D1000311D12AA6C0CE2F4080210A
:102A300049038F4216D2002218E0C80F02D1002E9F
:102A40002AD026E0002E1AD0002008E0002E19D14E
:102A5000002402A803C8C80F18D1002C14D080216C
:102A6000090651E23E0D50A003C8821902A803C80E
:102A7000C80F02D1002A0FDC06E0002A0BDD00207F
:102A8000002141E2EC0FE4E700213DE2002C02D0FE
:102A90000020474938E20020464935E202A803C831
:102AA0000B0002185B4104D1002A02D102A803C81E
:102AB00021E0414E5A0DB61A352E0FDB002280233D
:102AC0001B060B4004A80CC017E000BF0000F0BFBD
:102AD0000000F03FFFFFFFFFFFFFFF7F202E03DD21
:102AE000203EF140B14000E001D1002003E0002E83
:102AF00001DDF040B04004AA03C2E80F1FD002A8D5
:102B000003C8002905DA002280231B06121A8B4114
:102B100001E002000B0004A803C8002906DA002621
:102B200080273F06361A8F41300039008B4201D191
:102B3000824204D000BF00BFBEA003C8E4E1200071
:102B40002900BCA430CC0D40002280235B039D42B1
:102B500003D2009200244D400CE02C0DB74A002314
:102B6000DB43121900921A46B14B02400B40B44DA0
:102B700014001D43E80F4AD06D006D0804A80CC86E
:102B800019009018494101D1002824D0054E480D64
:102B9000361A352E12DB80210906194000220B005F
:102BA00019E000BF3404000002FCFFFFFFFFFFFF3D
:102BB0000000F0FF0000F07F33040000202E03DD52
:102BC000203EF340B34000E001D1002203E0002E9C
:102BD00001DDF240B24004A803C8002905DA00264E
:102BE00080273F06361A8F4101E006000F00002BB8
:102BF00006DA002080210906801A994102000B00A4
:102C00009F4203D1964201D1002000E001200490B0
:102C1000009801282AD120002900DAA20CCAFEF768
:102C20002BFC23D200200190D24906AA03C26900DE
:102C30004A0D511C002A12D0002910DDC44A9142CD
:102C400007DB1005290080221206114001430024F1
:102C50000AE0774A2A4008051043050023E02900CE
:102C600080221206114000240D001CE00020A8491B
:102C700022002B00FEF73EFB0022714BFEF772FC98
:102C8000FEF72CFC20380190FEF762FC0022A14BDD
:102C9000FEF730FB00226A4BFEF764FC06AA03C273
:102CA0000198400101902000290006AA0CCAFEF7F5
:102CB000BCFC06000F0006A803C822002B00FEF78C
:102CC00051FC02000B0030003900FEF754FD08AA49
:102CD00003C208A80CC808A803C8FEF70BFB06002F
:102CE0000F002000290006AA0CCAFEF79EFC0AAAC3
:102CF00003C289A003C832003B00FEF7FBFA88A29A
:102D00000CCAFEF72FFC32003B00FEF7F3FA86A256
:102D10000CCAFEF727FC32003B00FEF7EBFA84A258
:102D20000CCAFEF71FFC32003B00FEF7E3FA82A25A
:102D30000CCAFEF717FC32003B00FEF7DBFA80A25C
:102D40000CCAFEF70FFC32003B00FEF7D3FA7EA25E
:102D50000CCAFEF707FC0CAA03C20020854906AA8C
:102D60000CCAFEF762FC4B005C0D631C002C12D0F9
:102D7000002B10DD764CA34206DB230508008021E2
:102D80000906084018430AE0294C0C401A05224362
:102D90000400150005E00800802109060840002411
:102DA00005000CA803C832003B00FEF7A3FA0AAAEC
:102DB0000CCAFEF73AFC22002B00FEF7D3FB08AA50
:102DC0000CCAFEF797FA02000B0050487844FF3017
:102DD0003D30019945180AA803C8FEF7C3FB06AAAF
:102DE00003C20098FEF7B4FB0CCD083DFEF7BAFB1A
:102DF00006000F0006A80CC856A003C8FEF77AFA12
:102E000032003B00FEF7AEFB02AA0CCAFEF772FAD4
:102E10000022524BFEF730FB73D30122504BFEF7DA
:102E200044FB65D9CA0F0DD000224E4B0BE000BF0A
:102E3000FFFF0F80FFFFFFFFFFFFFF7F02FCFFFF91
:102E40000000E03F484BFEF78DFBFEF747FB040018
:102E500002A803C832003B00FEF74CFA06000F0040
:102E60002000FEF775FB02000B0030003900FEF772
:102E7000DCFB3EA20CCAFEF73DFA0090019106A8C9
:102E80000CC802A803C8FEF735FA06000F00280098
:102E9000083003C82A0010320CCAFEF763FB020098
:102EA0000B0002A803C8FEF725FA30A20CCAFEF7F1
:102EB00021FA32003B00FEF755FB009A019BFEF71A
:102EC00051FB149A002A01D01460002400940022BF
:102ED000284B00F0E7FD28A20CCA02400B4001D1AC
:102EE000002A0ED04B005B155B1C03D10A0301D1F5
:102EF00000202349049A002A06D08022120651405D
:102F000002E000200021F5E70FB0F0BD64270000CB
:102F1000000050400000903FF7DE29BFD8F8C23FC4
:102F2000F4B3FECC1A99C33F62CB68D96F46C73F52
:102F3000C6C912DAC471CC3F4AE98A942449D23F07
:102F4000F75F97999999D93FBC5555555555E53F28
:102F5000FF070000FE822B654715F73F0000E0C029
:102F60000000E0400000E0BF0000E03FEF39FAFE63
:102F7000422EE63F0000F03FFFFFFFFFFFFFFF7F15
:102F80000000F07FCD3B7F669EA0E63F1CB500248D
:102F90000094FFF753FC1CBD002200BF094202D081
:102FA000491E4254FCD17047F8B5040001D10120FC
:102FB000F2BD82277F000025606A002804D1606886
:102FC000B84203D0E56101E02561656126005C3609
:102FD0007078002803D13570200000F065FF0220D2
:102FE000707021680A6840239A430A60E268E02111
:102FF000C9008A4205D90021F0231B019A4205D15C
:1030000005E0C102E023DB009A4200D0A562012264
:1030100063681F40BC46A76884231B023B40674689
:103020003B43276907401F43636913403B439C466A
:10303000A76903021F4063461F43BC46277F38230E
:103040003B4067463B439C462023E75C80231F4070
:1030500063461F43BC46A36A07033B4067463B43A6
:1030600027683B60A36A0703BB4212D1236B002B86
:1030700008D1E368E027FF00BB4201D9206303E0E9
:10308000226306E0022B04D120680368D7021F43A5
:103090000760A069030C042003402420205C102753
:1030A000384018433423E35C08273B400343E0687F
:1030B000F0273F0107401F43394320684160A06A61
:1030C0005103884202D1E06A216808612068C16921
:1030D0007C4B0B40C361756072700020F2BDFCB583
:1030E00083B004000E0000274430007E012801D187
:1030F0000220E4E01500012021004431087600F0B0
:1031000009FF029028000221009121004431497EEC
:10311000012901D00227CBE0002E00D0290000D1E8
:10312000C5E0032122004432517622004432D761A7
:10313000A663A587E58727644422A752220044326C
:10314000578022004432D760220044329760A16841
:1031500080221202914209D121680A6840239A43D1
:103160000A6021680A681B0213430B60A16A80226F
:10317000920191420AD121680A68534B13400B60B7
:1031800021680A6880239B0113430B602168402259
:103190000B68134002D10B681A430A606168002271
:1031A000D2430192049DE268484B9A422DD30029F4
:1031B00001D0012809D1A06B00882168C860A06BEC
:1031C000801CA063E08F401EE087029E08E0A16B98
:1031D0000988C160A06B801CA063E08F401EE0875F
:1031E000E08F00283ED020688168009A0A40EED126
:1031F00000F090FE801BA84204D301988542EFD0D6
:10320000032755E0002DEBD1FAE7002901D0012872
:1032100009D1A06B007821680873A06B401CA063E3
:10322000E08F401EE087029E08E0A16B09780173E1
:10323000A06B401CA063E08F401EE087E08F002859
:1032400010D020688168009A0A40EED100F062FE3A
:10325000801BA84203D301988542D1D1EEE7002D0F
:10326000ECD1CDE729003200A06A80239B0198426F
:1032700005D12068036880256D011D43056020008D
:1032800000F0E5FA002803D0202021004431C86175
:10329000A068002806D100902068C168009180686D
:1032A0000090009820004430C069002800D0012719
:1032B000200044300121417600210176F8B205B0AA
:1032C000F0BD0000FFF7FFFFFFDFFFFF0107000079
:1032D000F2B586B004001500002000906946087021
:1032E000012005900020087120004430007E012854
:1032F00001D10220ACE11E000120210044310876FA
:1033000000F008FE029020004430427E21680B68E5
:1033100004934B680393012A0BD0636882277F00D4
:10332000BB4204D1A368002B01D1042A01D00220A2
:10333000A7E1069A002A03D0002D01D0330001D165
:1033400001209EE1230044335F7E042F01D0052736
:103350005F76002327004437FB6125642300443354
:103360005E804423E652A263E687A68700222300FC
:1033700044339A6023004433DA60A26A80239B01BD
:103380009A4209D10A68094B13400B6021680A6808
:1033900080239B0113430B602268BB49E3688B4287
:1033A000536807D3024D1D4007E000BFFFDFFFFF5A
:1033B000FFEFFFFF80256D011D435560226840230C
:1033C00015681D4002D115682B43136063680C9A81
:1033D000E5688D4277D3002B01D0012E09D1A06B77
:1033E00000882168C860A06B801CA063E08F401E2D
:1033F000E08700940C92059C049D039E0098C08F6A
:10340000002804D1009844304088002876D00098E5
:1034100000688168890730D50099C98F00292CD0B0
:10342000002C2AD00099896B0988C1600098806BB4
:10343000801C009988630098C08F401E0099C8873F
:1034400000240098C08F002817D10098806A80213E
:103450008901884211D1680708D4300706D5009841
:1034600000680168802292000A43026000980068A8
:103470000168802252010A4302600098006801211D
:1034800082680A4011D0009A44325388002B0CD035
:10349000C068009B1B6C18800098006C801C009B0F
:1034A00018645088401E5080012400F033FD0299BA
:1034B000401A0C998842A1D308460021C94388428A
:1034C0009CD0009CDCE0002B01D0012E09D1A06B28
:1034D000007821680873A06B401CA063E08F401E39
:1034E000E08700940C92059C049D039E0098C08F79
:1034F000002805D1009844304088002800D1A9E078
:103500000098016861488A68920730D5009AD28F86
:10351000002A2CD0002C2AD0009A926B12780A73C1
:103520000099896B491C009A91630099C98F091809
:10353000009AD18700240099C98F002917D10099DA
:10354000896A80229201914211D1690708D431071A
:1035500006D5009909680A6880239B0013430B6015
:10356000009909680A6880235B0113430B60009986
:10357000096801228B68134011D0009B44335F8897
:10358000002F0CD0097B009C246C21700099096CE1
:10359000491C009C2164598808185880012400F0B7
:1035A000B9FC0299401A0C998842084604D30021BC
:1035B000C943884285D199E7002897D181E7E0681F
:1035C000F02109018842206803D1C068009000986A
:1035D00018E00C3002900078694608706846007860
:1035E000206B02280ED100963B0001220121200011
:1035F00000F050F800283ED1029800786946087023
:103600006846007820688168C9060BD521004431DE
:10361000C9690D4321004431CD611D4981600120FC
:103620006946087132003900200000F010F90028C6
:1036300006D0012069460871202021004431C8616C
:10364000200044300121417600210176684600794E
:1036500007B0F0BD009C0C9F029E0225A06A2903C2
:103660008842CFD100963B0001220121200000F0CA
:1036700011F80028A3D020004430C1690D43C56172
:10368000032069460871DBE701070000FFFF000027
:10369000EFFF0000FEB582B006000A9C1D4600F058
:1036A00039FC281A071900F035FC7C4909684901E2
:1036B000090D7943009101240025019006E000984E
:1036C000002800D100270098401E009030688068D4
:1036D000029901400298814201D1012000E00020BE
:1036E0006946097B884235D004980021C943884245
:1036F000ECD000F00FFC0199401AB84201D2002F23
:10370000DDD130684168E0229143416070688221D8
:10371000490088420BD1B068E103884202D04909D0
:10372000884204D1306801684022914301606003FF
:10373000B16A814208D131680A68594B13400B6065
:1037400031680A681043086030005C3044700570CE
:10375000032000E0002005B0F0BDFCB585B00700F7
:103760000E000C9D002469460C700699009100F033
:10377000D1FB0099081A4019009000F0CBFB396882
:103780000C31009A454B1B6823256B431B0D5A4394
:1037900001923D000296059F009E0490039106E071
:1037A0000198002800D100260198401E0190286849
:1037B000806802990140B94245D00298C021C900F1
:1037C000884207D1002F05D1039800786946087018
:1037D0006846007806980021C9438842E7D000F087
:1037E00099FB0499401AB04201D2002ED8D1286822
:1037F0004168E02291434160686882214900884223
:103800000CD1A86880210902884202D04909884267
:1038100004D1286801684022914301608020800122
:10382000A96A814208D129680A681D4B13400B60C0
:1038300029680A681043086028005C300121417043
:103840000470032000E0002007B0F0BD0000F8B5D0
:1038500004000F001600202500963B000022C02126
:103860004901FFF77AFF002812D100963B000022A1
:1038700080212000FFF70EFF002809D100963B00B1
:103880000022C021C9002000FFF767FF002803D0F5
:10389000206E054325660320F2BD0000680000206D
:1038A000FFDFFFFFFFB50022032301932AE0052479
:1038B00003E0634CA042FAD1019CB4402C43029D2A
:1038C0002C60604D2E68DC4326404F68FF0300D516
:1038D0001E432E606E6826404F68BF0300D51E430E
:1038E0006E60AE6826404F68FF0200D51E43AE6092
:1038F000EE6834404E68B60202D526001C00344300
:10390000EC60521C0B681C00D44000D183E0012500
:1039100095402B40F5D05400019FA740FE430296EE
:103920004E68019F3740012F03D0019F3740022F7F
:103930000ED18768029E3E40CF68A740374387601C
:103940004668AE434D68EF06FF0F97403743476028
:1039500095006E4675704D68019E2E40032E26D050
:10396000C568029E2E408D68A5403543C5604D68F0
:10397000019E2E40022E1AD1D508AD0045192E6A9F
:1039800003966E4677781C263E406F463E70039E37
:10399000B4460F276E463678B7406646BE43B446F7
:1039A0000F696E463678B740664637432F62066821
:1039B000029D35404E68019F3740A7402F43076066
:1039C0004C68C025AD0225409BD001241E4D2D68BA
:1039D00025431D4E3560356825400295029D1B4DDF
:1039E0009608B600AD1902952D686E4677780C26BC
:1039F0003E400F27B740BD439027FF05B84201D195
:103A000000245AE7124FB842FBD0124CA04200D01B
:103A10004FE7022451E7FFBD0069084000D00120B4
:103A2000C0B27047002A01D081617047816270473F
:103A300042690B0013401B04914319438161704795
:103A4000000C00480004014018100240080001402A
:103A5000000400480008004838B5050000F05AFA94
:103A600004000020C043854202D0044800782D188D
:103A700000F050FA001BA842FAD331BD4C000020E0
:103A800090420ED1A4460C001C430128644107D08B
:103A9000994205D14C006415641C644000D30C03AA
:103AA00064467047F0B585B006000F0014001D0095
:103AB00078004015401C1DD08DA003C8304039400F
:103AC00001D1002816D068004015401C12D088A0F3
:103AD00003C82040294001D100280BD03000390014
:103AE00000297BDA002280231B06121A8B416846CC
:103AF0000CC075E079004915491C02D1380300D08B
:103B000079E169004915491C01D1280340D178A009
:103B100003C82040294008D1002806D17900491562
:103B2000491C35D1380333D10BE069004915491CD4
:103B30000CD128030AD179004915491C28D1380332
:103B400026D100BF00BF6AA003C856E168A003C821
:103B5000304039401FD100281DD169004A0D0A9913
:103B60005118002A22D12900802212061140002477
:103B70000D005FA003C82040294001D1002805D0D6
:103B800069004915491C03D1280301D100BF00BFBA
:103B90002000290031E179004915491C18D138036A
:103BA00016D130003900FDF7A5FB26E10029DADD4A
:103BB000A94A914206DB1005290080221206114015
:103BC0000143D4E7A54A2A40080510430500D0E781
:103BD00000202A00802109060A403CE06A4603C210
:103BE0000022894B002B04DA80210906901A9941A2
:103BF0000B00684603C89942104604DA2A00802167
:103C000009060A4027E08149002906DA80231B06BD
:103C1000121A8B4168460CC001E06A4603C23200AA
:103C20003B00002B06DA002080210906801A99410A
:103C300002000B00684603C899420EDC01DB90428B
:103C40000BD200BF00BF724908002A00802109067C
:103C50000A40024300201100CFE06EA003C83200EA
:103C60003B00FDF747FB02AA03C27949080002A9FD
:103C70000CC90092019343005B0802A803C80A0024
:103C80008020000602401A4300201100009A019B88
:103C9000FDF768FCFDF722FC0490FDF759FC02AA31
:103CA00003C202A80CC85DA003C8FDF723FB0200F5
:103CB0000B0030003900FDF7B8FC06000F0002A829
:103CC0000CC858A003C8FDF715FB02000B0030001C
:103CD0003900FDF7AAFC06000F0079004908002210
:103CE000524BFDF7C9FB07D22000290053E000BF6B
:103CF000FFFFFFFFFFFFFF7F32003B003900FDF7B2
:103D0000F9FA6A4603C268460CC849A003C8FDF721
:103D1000F1FA49A20CCAFDF725FC6A460CCAFDF768
:103D2000E9FA02AA03C268460CC845A003C8FDF719
:103D3000E1FA45A20CCAFDF715FC6A460CCAFDF76C
:103D4000D9FA0022424BFDF70DFC32003B00FDF793
:103D5000D1FA06000F0002A803C832003B00FDF7AD
:103D600001FC00223B4BFDF7FDFB0090019102A8F6
:103D700003C832003B00FDF758FC0022354BFDF72D
:103D8000F1FB02000B0000980199FDF7F4FC220002
:103D90002B00FDF7AFFA4B005C0D049BE3180A9D66
:103DA0005B19002C12D0002B10DD2B4CA34206DB3C
:103DB0002305080080210906084018430AE0274C23
:103DC0000C401A0522430600170005E00800802178
:103DD000090608400026070009A003C83040394002
:103DE00001D1002805D079004915491C03D13803B9
:103DF00001D100BF00BF3000390005B0F0BD00BFE9
:103E0000FFFFFFFFFFFFFF7F00C89CC000C89C4072
:103E10000000F07FFE822B654715F73F000000F899
:103E2000422EE63FF2E4D5BCE7E84B3E0000903C72
:103E3000112E5781A03F503F5843128C8F71BC3FC9
:103E40004BE8A541B752013F0BBDF3DAE8708C3F58
:103E50000000E03F0000F03FFF070000FFFF0F8081
:103E600080B528482849016082214900416000212D
:103E70008160E022D200C260016141618022920033
:103E800082611022C2610162416251028162072196
:103E9000C1620121016308214163FFF785F8002811
:103EA00001D000F041F901BD10B586B0040001A8B1
:103EB0001421FFF771F82068134988421FD1134875
:103EC000090C82680A43826082681140009100995F
:103ED0008021C90202680A43026000680140009123
:103EE0000098E0200002019002200290012003903F
:103EF00004900020059001A90548FFF7D3FC06B007
:103F000010BD0000B803002000380040141002402B
:103F10000004004801484068704700BF4C00002082
:103F200070B500F00BF900F061F800F017F9FFF739
:103F300097FF00F071F900F0C5F9744D744C200042
:103F40001430296888470120696B8847617920000F
:103F50003830FFF721F800F0E7F900F02CFA20796B
:103F6000012833D1E068401CE060FF2801DD00201B
:103F7000E060E66830006421FDF7CEFB2070300081
:103F80000A21FDF7C9FB0A21FDF7C6FB617030006D
:103F90000A21FDF7C1FBA170032221002000383067
:103FA000FDF74CF960890023002201006E6DB047D7
:103FB0005EA002686179200038306B6E98478021DE
:103FC00009029020C005FFF733FDCBE721890023CC
:103FD000002208006E6DB04755A00068E96D884763
:103FE0000020A07153A000F00BFAFEE770B594B06A
:103FF00008A83021FEF7D0FF68461021FEF7CCFF5D
:1040000004A81021FEF7C8FF0226089601240B948D
:1040100010200C90109600251195A020800312907E
:10402000139508A800F000FA002801D000F07CF8F1
:10403000072000900196029503950121684600F043
:10404000CBFB002801D000F06FF80494069504A87B
:1040500000F094FC002801D000F066F814B070BDA8
:104060002B480169491C01610279012A00D070477F
:1040700010B5022902DD0021016101E0002902D111
:1040800000F052F908E0012902D100F063F903E0E1
:10409000022901D100F076F90020FDF73DFC1D4C0E
:1040A0002078FDF7B0FC2000FDF7F9FC1A48FDF779
:1040B00033FD10BD0020194908600520144988719E
:1040C0007047002015490860022011498871704727
:1040D00000201249086006200D49887170470020B1
:1040E0000E49086003200A498871704700200B4977
:1040F0000860042006498871704701B5084B012209
:104100006946084800F0EEFC009802BD905A00088D
:1041100000000020CC040020B4040020DC040020B7
:10412000FFFF00003403002072B6FEE70200E80340
:104130000200E80373746172740A000080B50648D7
:10414000016810220A430260002001F087F801F0A4
:10415000A7F8002002BD000000200240F8B586B09C
:1041600068461421FEF718FF8020800227490A685C
:1041700002430A600A681040059005988020C0023A
:104180000A6802430A600968084005900598204CB7
:10419000204D012221002800FFF744FC8026360232
:1041A0009027FF05012231003800FFF73BFC022079
:1041B0000090842189030191029069463800FFF73D
:1041C00071FB009401240194029403946946280031
:1041D000FFF768FBE0020090002501950294694614
:1041E0003800FFF75FFB009601940295039469463F
:1041F0003800FFF757FB00220021052001F085F869
:10420000052001F086F807B0F0BD00001410024050
:10421000041000000004004880B5274827490160C9
:10422000E1214902416000218160C16001610C22ED
:1042300042618161C1610162416200F01DFC0028A0
:1042400001D0FFF771FF01BD10B586B0040001A8D1
:104250001421FEF7A1FE2068184988422AD1184887
:104260008021C90142680A434260426811400091BE
:1042700000998021890202680A43026000680140B7
:1042800000910098C020C000019002200290002000
:104290000390032004900120059001A99020C005FF
:1042A000FFF700FB002200211B2001F02EF81B204D
:1042B00001F02FF806B010BD340300200038014093
:1042C0001410024080B5154815490160F021416085
:1042D00000218160FA229200C260816101F03EF803
:1042E000002801D0FFF720FF01BD00680C4988427B
:1042F00000D0704780B510200A490A6802430A605E
:10430000096808400090009800220121112000F067
:10431000FCFF112000F0FDFF01BD00006C04002037
:10432000001000401C100240314801210170A02201
:1043300002710A224271072282712E4801701221F5
:10434000017200214172142181722021C172402129
:1043500001737047264900200870EF224A7003223B
:104360008A701022CA702349087070234B7008238A
:104370008B70CA7020220A7114224A7130228A710D
:10438000C87170471A4803210170EB22C2710022E4
:104390000272102242721748017070214173042189
:1043A0008173C273202101741421417430218174FE
:1043B0000821C174704710B50020FDF7ADFA0C4C10
:1043C0002078FDF720FB2000FDF769FB0948FDF789
:1043D000A3FB0948FDF723FB00210020FDF757FB55
:1043E00000210D20054A126D9047FDF7F6FF10BD24
:1043F000CC040020B40400208047B393905A0008F6
:104400000EB4C0B5020003A801900020009001ABDB
:104410000121044878440C30FBF74CFE029906B0A9
:10442000084700BF5F180000F8B5040019D0B44D6C
:104430002078C00717D58027BF0268680C2101408B
:10444000042909D068680C210140082940D1686816
:104450007908084088423BD12868074003D060684B
:10446000002800D11FE12078800719D568680C2149
:10447000014007D068680C21014008295ED16868B6
:10448000C0035BD42868800703D5E068012800D00A
:1044900009E12868F82188432169C900014329609E
:1044A0002078000774D5E0690028686A68D0012187
:1044B00001436962FFF72EFD0600686A800700D598
:1044C000F3E0FFF727FD801B0228F6D90320F2BD99
:1044D0006168012902D1286879080BE0BB48BC4A11
:1044E00000290AD0052908D12868790001432960EC
:1044F0002868D1430143296005E029680A402A6001
:10450000296808402860606800280BD0FFF702FD8A
:10451000060028683840A6D1FFF7FCFC801B652800
:10452000F7D3D3E7FFF7F6FC0600286838409AD0A7
:10453000FFF7F0FC801B6528F7D3C7E7E068002889
:1045400028680ED0012101432960FFF7E3FC060033
:10455000286880079DD4FFF7DDFC801B0228F7D96F
:10456000B4E7012188432860FFF7D4FC06002868DF
:10457000800795D5FFF7CEFC801B0228F7D9A5E769
:10458000012188436862FFF7C5FC0600686A80075E
:1045900000D48AE0FFF7BEFC801B0228F6D995E71D
:1045A0000420C0430122D24300290AD0052908D1A2
:1045B000286A042101432962286A012101432962F2
:1045C00005E0296A0A402A62296A08402862814F68
:1045D000A06800280CD0FFF79DFC0600286A800721
:1045E00000D595E0FFF796FC801BB842F6D36DE747
:1045F000FFF790FC0600286A800700D488E0FFF7E8
:1046000089FC801BB842F6D360E7FFF783FC801B70
:10461000022800D897E059E7FFF77CFC801B0228AE
:1046200000D8AEE052E70421C9438842686B03D149
:104630000421884368638AE0042101436963686B4D
:10464000012188436863FFF765FC0600686B8007FB
:1046500067D5FFF75FFC801B0228F7D936E70140DA
:104660002960FFF757FC04002868800100D4AAE005
:10467000FFF750FC001B0228F6D927E7012812D0CB
:104680006868E96A802252020240636A9A420AD14B
:104690000907090FE26A914205D1F021890301401F
:1046A000A06A81425BD00120F2BD2078400736D558
:1046B0000020009080204005E969014008D1E969A7
:1046C0000143E961E96908400090009801200090E9
:1046D00094480068C00515D492480068A90D0143AC
:1046E00090480160FFF716FC06008E480068C00580
:1046F00008D4FFF70FFC801B6528F6D3E6E600BF61
:1047000000100240A168012900D049E7286A55E756
:104710000098002803D0E86983490140E9612078C6
:10472000C0061AD56069F827FF43012800D07AE750
:10473000686B042101436963686B0121014369636C
:10474000FFF7E8FB0600686B800700D45DE7686B45
:104750000740A069C00038436863206A002832D04F
:1047600069680C220A40082A88D070490228286803
:1047700000D074E701402960FFF7CCFB06008027DA
:10478000BF042868384000D046E7E86A0F21884314
:10479000E16A0143E962686865490140A06A08432B
:1047A000616A014369602868790801432960FFF75D
:1047B000B1FB04002868384005D1FFF7ABFB001BB4
:1047C0000228F7D982E60020F2BD0000FFFFFBFFC0
:1047D000FFFFFEFF89130000F8B5040078D00091B8
:1047E00054480068C107C90F009881420CD2514853
:1047F000016801229143009A0A4302600068C107E0
:10480000C90F0098814263D121684B4D02200142BB
:104810000CD0490704D56968E022D2000A436A60D7
:104820006968F0229143A2680A436A6001272168FF
:1048300039403DD06168012902D12868800303E036
:10484000022903D12868800103D441E02A6810407E
:104850003ED068680322904301436960FFF75AFB2A
:10486000060068680C2101406068800081421FD00A
:10487000FFF750FB801B31498842F2D30320F2BD81
:104880002078400705D568682D490140E068084355
:10489000686000F01FF82B496A681206120F895CE5
:1048A000C84029490860002000F0D8FC0020F2BD73
:1048B0002048009902683A409142E1D20168B94328
:1048C000009A0A4302600068074000988742D7D0E8
:1048D0000120F2BD1D4B19681D480C220A40082A10
:1048E00000D0704730B50F221CA48D0C1540645DBC
:1048F0009B6AC90307D500BF1CA11A40895CFCF75D
:104900001FFF604330BD20001249484330BD0E48B0
:10491000006811490D4A12685205520F895CC8405F
:104920007047000000700040FFFFFFEFFFFFFFFE39
:10493000FFFFC2FF00200240001002408913000068
:10494000FFF8FFFFAC5C0008680000200410024084
:1049500000127A0000093D00E85C0008020304052B
:10496000060708090A0B0C0D0E0F101001020304B4
:1049700005060708090A0B0C0D0E0F10F8B5070005
:10498000374C3868C00357D5002000908020400580
:104990002168014008D12168014321602168084055
:1049A00000900098012000902E4E3068C00517D46A
:1049B0003068A10D01433160FFF7ACFA05003068A3
:1049C000C0050DD4FFF7A6FA401B6528F7D30320D6
:1049D000F2BDFFF79FFA401B234988421DD3F6E73B
:1049E000C020800061680140204A1600002917D0CD
:1049F0007A681040814213D060683040616880223C
:104A000052020A4362606168194A0A40626060604B
:104A1000C00705D5FFF77EFA050060688007D8D586
:104A2000606806407868304360600098002803D0D2
:104A300020681049014021603878C00705D56069B9
:104A400003218843B968014361613878800605D540
:104A5000606910218843F968014361610020F2BD5B
:104A60001C1002400070004089130000FFFCFFFF93
:104A7000FFFFFEFFFFFFFFEF38B5040014D0250055
:104A800074356868002803D128702000FFF7DCFB2C
:104A900024206860206801680122914301602000A1
:104AA00000F0F4F9012801D1012032BD606A00282C
:104AB00002D0200000F06FFA20684168084A0A40DE
:104AC000426020688168082291438160FFE7206886
:104AD000016801220A430260200000F0C3FA32BDDF
:104AE000FFF7FFFFF1B584B01C00743001904068FF
:104AF000202866D10D000FD068460280002A0BD016
:104B000080277F0104988068B84207D10498006923
:104B1000002803D1E80701D5012053E0049874214F
:104B2000405C01284DD001200199087000260198B1
:104B3000C660212001994860FFF7ECF904995031D3
:104B4000029169460988029A118069460988029A89
:104B5000518004998968B94203D1049909690029EF
:104B600001D029000025019A1670049E02940700C6
:104B70000C0010E021780185641C07E03068002CEF
:104B8000F8D12988C905C90D0185AD1C3000503008
:104B90004188491E4180300050304088002813D0A1
:104BA000029800903B0000228021300000F094FA2F
:104BB0000028E3D0032005E0202001994860002070
:104BC00000E0022005B0F0BD300002993B000091EA
:104BD0000022402100F080FA0028EDD0EAE7FEB57F
:104BE00004002068C16902688368A34F0F40250054
:104BF00058350026002F0AD18B0600D5930600D425
:104C000080E0E968002901D020008847F7BDDF0770
:104C100002D49A4F174075D0CF0706D5D70504D5D3
:104C200001270762A86A0743AF62880708D5D8073B
:104C300006D5022027683862A86A04270743AF62B6
:104C4000480708D5D80706D5042027683862A86A1F
:104C500002270743AF62080709D5900601D4D80799
:104C600005D5082023681862AB6A1843A8620805B6
:104C700009D5500107D58020000123681862A86A71
:104C800020230343AB62A86A002831D0880606D5EA
:104C9000900604D5E968002901D020008847A86A59
:104CA000402721688968394002D12821014024D059
:104CB000200000F093FA20688068074019D0EFF3D5
:104CC0001080012181F3108821688A6840239A436B
:104CD0008A6080F31088A86900280AD06849416377
:104CE000A86900F078FC002802D0A869416B8847C9
:104CF000F7BD200000F093FCF7BD200000F08FFC12
:104D0000AE62F7BDAB68012B00D093E0CB0600D5B7
:104D1000D30600D48EE0102101621020C04301218F
:104D2000C94322689268520649D5AA6913685B682C
:104D30009BB2002BE5D05827E75BBB42E1DA6B80E2
:104D40009269202A35D0EFF310820092012282F37B
:104D50001088226813684B4F1F401760009A82F337
:104D60001088EFF31082012383F3108823689F6873
:104D70003940996082F31088EFF31081012282F3A9
:104D80001088226893684027BB43936081F31088A2
:104D900020216962AE60EFF31081012282F3108856
:104DA000226813681840106081F31088A86900F029
:104DB000F1FB5820205A6988411A89B236E05822FE
:104DC000A25A6B88D21A6B461A806A88002A51D080
:104DD0006A461288002A4DD0EFF310820192012218
:104DE00082F3108822681368274F1F401760019ACA
:104DF00082F31088EFF31082012383F31088236875
:104E00009F683940996082F3108820216962AE6002
:104E1000EE60EFF31081012282F31088226813689C
:104E20001840106081F3108868460188200000F067
:104E3000F7FBF7BD080607D5100605D52969002937
:104E400018D020008847F7BD480613D5500611D565
:104E5000EFF31080012181F3108821680A68402354
:104E60009A430A6080F31088202028622E61200077
:104E700000F0D7FBF7BD00000F0800002001000480
:104E800049520008FFFEFFFFDFFEFFFFF8B50500F7
:104E900000260024286801688A4A0A40A96811434C
:104EA0002A690A4369691143EA690A430260416851
:104EB000854A0A40E968114341608168834A0A4093
:104EC000A96911432A6A0A438260102280498842F4
:104ED0000FD1804800688007800F0DD0022806D0CF
:104EE00003D3032809D1022207E0042205E00822A7
:104EF00003E0B049884200D10022AF4FAF48802183
:104F00000902EB698B4222D1002A06D0022A19D06D
:104F1000042A19D0082A04D038E0FFF7F8FC010071
:104F200035D06A684800510840181100FCF708FCA9
:104F300080B201001039B94228D207400007400F63
:104F400038431BE00100ECE7FFF7C4FCE7E7002A69
:104F500006D0022A08D0042A13D0082A14D015E05B
:104F6000FFF7D5FC002812D069684A088018FCF7C2
:104F7000E7FB80B201001039B94207D22968C86046
:104F800005E0FFF7A7FCEDE70800EDE701246E66FA
:104F9000AE662000F2BD2421415CC90706D5016838
:104FA0004A68874B1340826A1A434A602421415C55
:104FB000890706D501684A68824B1340C26A1A43C2
:104FC0004A602421415C490706D501684A687E4B46
:104FD0001340026B1A434A602421415C090706D53D
:104FE00001684A68794B1340426B1A434A60242196
:104FF000415CC90606D501688A68754B1340826B0F
:105000001A438A602421415C890606D501688A68B2
:10501000134B1340C26B1A438A602421415C49063A
:1050200011D501684A686B4B1340026C1A434A6001
:10503000026C80235B039A4205D14A68664B134099
:10504000426C1A434A602421415C090606D5016876
:105050004A68794B1340806C1843486070470000E1
:10506000FFDFFFFFF8B5040000257430C560FEF7D0
:1050700051FF0700714E20680068000709D50096AF
:105080003B00002280218903200000F025F8002841
:105090000DD12068006840070BD500963B00002228
:1050A0008021C903200000F017F8002801D0032058
:1050B000F2BD2100743120204860886025660D70A3
:1050C0000020F2BDF369FFFFFFCFFFFFFFF4FFFFFA
:1050D0000038014030100240FEB5089F80242401B2
:1050E0000025060001916846027002933068C0698D
:1050F000019901400198814201D1012000E0002086
:1051000069460978884252D10020C0438742EDD0D9
:10511000FEF700FF0299401A874201D3002F1DD1EC
:10512000EFF31080012181F3108831680A68444B45
:1051300013400B6080F31088EFF31080012181F39E
:10514000108831688A6801239A438A6080F3108846
:105150003000743020214160816025E030680168B2
:105160004907C3D5C1692140C0D00462EFF3108064
:10517000012181F3108831680A68314B13400B60BC
:1051800080F31088EFF31080012181F310883168DB
:105190008A6801239A438A6080F310883000743053
:1051A000202141608160C16005700320FEBD0020A8
:1051B000FEBD000000440040F0FF000000127A0035
:1051C000FFFFFDFFFFFFFEFFFFFFFBFFFF7FFFFF76
:1051D000FFEFFFFFFFFFEFFFFFFF9FFF10B5EFF3B4
:1051E0001081012282F3108802681368154C1C405C
:1051F000146081F31088EFF31081012282F310888C
:10520000026893680124A343936081F31088016EC0
:1052100001290BD1EFF31081012282F3108802687B
:1052200013681024A343136081F310882021C16701
:1052300000210166416610BDFFFFF7FFFFFFFF0180
:105240005FFEFFFFDFFEFFFF80B5406A01005231C5
:1052500000220A810A8000F0E2F901BD38B505009C
:105260000D4CFA2080002178FCF76AFA01000B4807
:105270000068FCF765FA00F055F800280AD1042D03
:1052800008D2002229000020C04300F03EF8A560AB
:10529000002032BD012032BD4C00002068000020FB
:1052A00081B0012009490A6802430A600A68104077
:1052B00000900098802040054A6802434A6049688F
:1052C00008400090009801B0704700BF18100240DD
:1052D00010B5C20018231340FF249C40E243890705
:1052E000090E9940030004D418489B089B00C0187D
:1052F00006E0174B0007000F0838800880001818D8
:1053000003681A401143016010BD80B5FFF7E0FF4C
:1053100001BD010005D40121C006C00E81400D4829
:105320000160704710B5401E80214904884201D3B6
:10533000012010BD084C606003210020C043FFF72E
:10534000C7FF0020A0600721216010BD00E400E03D
:105350001CED00E000E100E010E000E010B504000A
:1053600001D1012010BD3D20205C002804D13C214A
:1053700060542000FEF7B9FFFFE702203D21605492
:10538000211D206800F0C0F80120462160543E2114
:1053900060543F21605440216054412160544221B7
:1053A00060544321605444216054452160543D21A0
:1053B0006054002010BDF8B50400206800250226C6
:1053C0000169314015D0C168314012D00221C94372
:1053D0000161012121778069800703D0200000F05E
:1053E00021F905E0200000F01EF9200000F01CF972
:1053F0002577206804270169394016D0C1683940F3
:1054000013D00421C943016126778069C021890036
:10541000014003D0200000F005F905E0200000F075
:1054200002F9200000F000F92577206808260169BC
:10543000314014D0C168314011D00821C943016105
:105440002777C069800703D0200000F0EBF805E063
:10545000200000F0E8F8200000F0E6F8257720684A
:10546000102102690A4016D0C268114013D01021E1
:10547000C94301612677C069C0218900014003D07A
:10548000200000F0CFF805E0200000F0CCF820006C
:1054900000F0CAF825772068012102690A4008D087
:1054A000C268114005D00121C94301612000FEF707
:1054B000D7FD2068802102690A4008D0C2681140E7
:1054C00005D08021C9430161200000F0AEF82068BA
:1054D000402102690A4008D0C268114005D040212D
:1054E000C9430161200000F0A1F820682021026971
:1054F0000A4008D0C268114005D02021C94301618B
:10550000200000F094F8F1BDF0B506681A4A1B4B74
:105510001B4C1C4DA84201D0A04206D17027BE43AF
:1055200037004E683E43A8420BD0A04209D0164C2B
:10553000A04206D0984204D0904202D0144CA0421F
:1055400003D1124C3440CE6826438024A6434C69D4
:10555000344304608C68C4620C688462A84206D03C
:10556000984204D0904202D0094A904201D1096980
:10557000016301214161F0BD004401400040014050
:1055800000040040002C014000200040FFFCFFFF11
:105590000048014010B500212122825C022A05D07A
:1055A0000422826320228154012010BD0268136806
:1055B0000E24A3431360026813680124A3431360FD
:1055C0000122036C9C40C36B5C602123C2542022E7
:1055D0008154002010BD70B5002200240121212338
:1055E000C35C022B03D004228263012415E003680C
:1055F0001D680E26B5431D6003681D688D431D6040
:10560000036C01259D40C36B5D602123C1542021A3
:105610004254416B002900D08847200070BD70477C
:1056200070477047704770477047704770477047C2
:1056300070B40123002413E00168001D194202D058
:105640004D466D1E49190C60091D121F042AFAD21D
:105650000D00960701D50C80AD1C1A4000D02C70AF
:105660000268001D002AE7D170BC704700000000EE
:10567000000000000000F0BF0000000000000080FB
:10568000000000000000008000000000000000009A
:10569000000000C05294EEBF00000048204E51BEF2
:1056A000000000F86467BCBC0000000000000000BF
:1056B000000000208133EDBF00000080B3DB14BE8A
:1056C000000000506706A3BC0000000000000000BE
:1056D000000000D0E9DCEBBF00000008C39259BE17
:1056E00000000080B0D3B8BC000000000000000043
:1056F00000000070F98FEABF000000C0A51028BEAE
:10570000000000E8BFC0B0BC0000000000000000C6
:1057100000000070284CE9BF00000060134B42BE3F
:10572000000000C03D20B8BC0000000000000000E8
:1057300000000050FA10E8BF000000C05FF62BBE6A
:10574000000000905C71A7BC000000000000000099
:1057500000000020FCDDE6BF000000C0F8F154BEF0
:1057600000000018E9F6B9BC0000000000000000CD
:10577000000000D0C3B2E5BF00000070E43254BEA8
:1057800000000050DB06B4BC000000000000000078
:1057900000000010EF8EE4BF00000020F36252BE54
:1057A000000000C02A879ABC000000000000000032
:1057B000000000B02272E3BF000000F0E8E056BE37
:1057C00000000028352DBDBC0000000000000000D6
:1057D000000000000A5CE2BF000000B0FA8E41BE8B
:1057E00000000040AE6FBDBC0000000000000000E3
:1057F00000000000564CE1BF000000F015CD5FBE78
:1058000000000000141C90BC00000000000000001C
:1058100000000040BD42E0BF00000030F93457BE38
:10582000000000E06C1E93BC0000000000000000BF
:10583000000000E0F57DDEBF000000B08A535EBED0
:1058400000000080DA77AABC000000000000000021
:10585000000000C09D81DCBF00000000FFA226BE4A
:105860000000006057E2B0BC000000000000000033
:1058700000000060F98FDABF000000580A8151BEB5
:10588000000000F05F60B8BC0000000000000000F5
:105890000000000098A8D8BF000000607A7F45BED5
:1058A000000000D05433A3BC000000000000000042
:1058B000000000600FCBD6BF000000D091CB40BEEF
:1058C000000000406D1BA0BC0000000000000000B4
:1058D000000000A0FBF6D4BF00000098C5CE52BE69
:1058E000000000003A397EBC00000000000000000B
:1058F000000000E0FE2BD3BF0000004073872BBEEA
:1059000000000000926879BC000000000000000068
:1059100000000040C069D1BF00000058F16353BED1
:1059200000000080438D7CBC0000000000000000EF
:1059300000000080D85FCFBF000000181F8354BE56
:10594000000000B03F42A2BC0000000000000000C8
:105950000000008067FCCBBF00000060FAFF53BE70
:1059600000000050E00DB8BC000000000000000086
:105970000000000098A8C8BF000000607A7F35BE14
:10598000000000C0543393BC000000000000000081
:1059900000000000DC63C5BF00000058D6FF54BE05
:1059A00000000000396490BC00000000000000000E
:1059B000000000C0AD2DC2BF00000080A45915BE7C
:1059C000000000E0484BABBC0000000000000000FD
:1059D000000000801A0BBEBF00000050BF3C5ABE42
:1059E000000000A0B364B6BC00000000000000008E
:1059F0000000008004D6B7BF00000040BBCF36BE19
:105A00000000008076CEA8BC00000000000000006E
:105A10000000008032BBB1BF000000402A0043BE3E
:105A200000000028C60CBDBC000000000000000003
:105A3000000000009473A7BF000000182B3B59BE64
:105A4000000000C0E55DA5BC0000000000000000F3
:105A500000000000EE4397BF000000A0E6C340BE78
:105A600000000020958DB5BC000000000000000083
:105A70000000000000000080000000000000008026
:105A80000000000000000080000000000000000096
:105A90007918000805260008B1180008312600080A
:105AA00075260008C1260008F1260008FD2600081A
:105AB0006927000879270008BB2700081928000873
:105AC000951800082B1F000819190008071A00086C
:105AD0009F1A0008191B00081F1A00088F1A0008D7
