:020000040800F2
:10000000D80800206D5F0008315E0008335E0008EC
:1000100000000000000000000000000000000000E0
:10002000000000000000000000000000355E000835
:100030000000000000000000375E0008395E000884
:100040000713000800000000A7140008C7190008E3
:10005000CB190008415E0008DB2B00082F5E00086A
:1000600000000000EB5E0008F75E0008475F000834
:10007000855F0008875F0008895F000800000000B6
:100080008B5F00084B5E0008000000008D5F0008D9
:100090008F5F0008915F0008935F0008955F00087C
:1000A000975F0008995F00089B5F0008555E000895
:1000B0009D5F0008FDB5B4B03C9801AA0023002460
:1000C00018C2069104A93B2288540F9317A8401C1C
:1000D00031900F206946C87013E0359C3500349F7D
:1000E00021780698B8470690002800D140E10F9883
:1000F000401C0F90641C6D1EF2D134973598801906
:1001000035903598007825280ED1002009900A9066
:100110000B900C900D900E9000210224042016905C
:1001200008201490359D0FE001AA0021C94335989D
:1001300001F096F8060001D10F981BE1CDD50126FC
:10014000DCE70800012101436D1C28782028F8D045
:1001500023280BD02B2804D02D2804D0302808D0F9
:100160000AE02143F0E708001699ECE708000821AF
:10017000E9E708001021E6E72A280FD1369802683F
:100180001068121D369B1A601190002804D5424257
:1001900011920800169901436D1C12E00020119085
:1001A000B94A09E0119B934205DA9E00F3185B00FF
:1001B0001818303811906D1C28780300303B0A2B3A
:1001C000F0D328782E2803D00020C043109027E0D9
:1001D0006D1C28782A2808D1369800680268001D0E
:1001E000369B186010926D1C1AE02D2802D12D222A
:1001F0006D1C00E0002200201090A34B0BE0002AB1
:1002000008D1109E9E4205DAB700BE19760030185C
:10021000303810906D1C28780600303E0A2EEED340
:1002200004A801872E78310056487844FF305730B3
:1002300001F028F8002801D06D1C00E0002604A879
:100240003A214654405C682804D1287868280BD1AC
:10025000622005E06C2807D128786C2804D1712031
:1002600004A93A2288546D1C22A80890287869466F
:100270000870681C3590684602781000253834D024
:100280001C3800D19CE1001F022800D898E10E38EC
:1002900031D0401F01D100F0E5FC093800D18FE1D9
:1002A000801E01D100F07CFD401E01D100F028FD30
:1002B000401E022800D883E1001F01D100F020FD7C
:1002C000401F00D1D2E0401E01D100F0CBFC401E07
:1002D00078D0C01E27D0801E01D100F0C3FCC01E04
:1002E00001D100F0BFFC00F07AFD252022A90870A2
:1002F0000120099034E06C2004A93A2288543698F1
:1003000000680268001D36990860002A53D104A8CD
:100310003B21405C00284AD00024E44359487844FB
:10032000FF30633018E004A83A21405C6C28E6D026
:10033000369800680468001D369908600794002C00
:1003400022D104A83B21405C002815D00024E443BE
:100350004E487844FF30373000F09EFF201A07D116
:1003600022AA04A9349800F049FD002800D4C8E668
:100370000020C04337B0F0BD45487844FF3013300B
:100380000790EDE7205A0000109D002D03D52000B6
:1003900000F0A6FF09E02A000021200000F0A8FFDD
:1003A000002801D0001B00E028000A90D8E7394A55
:1003B0007A44FF321F3A04A9349800F0A9FD0028BE
:1003C000CED5D5E7369800680268001D36990860DA
:1003D0000020C0430021104004AA03C222A80790B5
:1003E000089B3C2404A803C8002904D1002802D19A
:1003F000109A002A16D0641E6D46ED7805403035FF
:10040000EEB23A2E08DA1D5500090A071043090911
:1004100004D1002802D105E02735F4E7079A1D1919
:10042000AA42E8D33C20001B0A90191907911099A1
:10043000884207DA081A0C9004A8018FA64A0A40DD
:1004400002878DE700298BD504A93822895C142204
:100450000A40102A84D11199099A891A0C9A891A8A
:10046000081A002800DC7BE70C9079E704A83B2100
:10047000415C002910D00024E4434F487844FF3009
:10048000393069E778590000CBCCCC0C50590000CA
:1004900068590000845900003A21405C62286BD002
:1004A00068281CD06A2847D06C2806D0712855D0FF
:1004B000742833D07A2823D06FE03698006801681A
:1004C000001D369A1060002906D10024E4433B4801
:1004D0007844FF3017383FE70F98086040E73698B8
:1004E00000680168001D369A1060002905D10024BB
:1004F000E44332487844C4302EE70F9808802FE751
:10050000369800680168001D369A10600029E3D112
:100510000024E44329487844A2301DE73698006857
:100520000168001D369A10600029D5D10024E443EB
:100530002248784486300FE7369800680268001D2C
:1005400036990860002A05D10024E4431B4878440A
:100550006A3001E70F98C11703C201E736980068B7
:100560000268001D36990860002AF3D10024E44394
:10057000124878444630EFE6369800680168001D5E
:10058000369A1060002905D10024E4430B487844D2
:100590002A30E1E60F980870E2E6369800680168B4
:1005A000001D369A1060002996D10024E4430348C8
:1005B00078440830D0E600BFF45700000858000027
:1005C00036980368DB1D072083433698036003CB0E
:1005D000369D2B6004AB03C3C80F02D009982D21B0
:1005E0000AE004A8008F204202D009982B2103E0E2
:1005F000C00705D50998202122AB1954401C099049
:1006000022A809994318079317AD04A8C0C86846E3
:1006100000782021014368468170612909D0109833
:10062000002801D5062003E003D1672901D101206C
:10063000109004A803C808004C006415641C12D173
:10064000090310D003200A90613A1A2A03D22349E1
:100650007944883102E02249794484310322180028
:1006600000F06CFE7CE6002C0AD1000308D10320C8
:100670000A90613A1A2A19D31A4979446631EDE78A
:1006800003AA04A803C800F066FE04AA03C26846D1
:100690008078612813D1079830210170811C07915F
:1006A00069460978612905D1782104E00E49794429
:1006B0003631D3E7582141700998801C099004A86D
:1006C00003C896A20CCA02400B400FD1002A0DD1DC
:1006D0000024002667E100BFEFFF00004057000044
:1006E00040570000445700003C570000684680789F
:1006F000612800D09EE01098002801D5212000E05C
:10070000401C15901598401C1690300039000022AE
:10071000002300F035FE04A830C802D28020000675
:1007200045400398001F039017A90A7017A8461C9C
:100730001698002836DD169F20002900002280230D
:100740005B0300F036FE2DD81C2200F04BFE0400A7
:100750000D0000F07FFE1690FF1F002F09DD00F056
:10076000B3FE02000B002000290000F01AFF040075
:100770000D00F01D07210F226B46DA70169A002A31
:100780000BDD491E09D4401E6E46F67816400670F1
:100790001211F4E7401E00220270491EFAD5C61D50
:1007A000002FC9DC17A83199711A17AA551C159A80
:1007B0000C00914200DD1400002C34D48C4206DA87
:1007C000411C095D082902DB6946C97800E0002167
:1007D000220017AB9B1801E0641E5B1E521E1E78A0
:1007E0008E42F9D00F2904D1411C895C491C401C60
:1007F0008154002A04D517AD641C0398001D039092
:10080000611E10D46A186846007813783033DEB25F
:100810003A2E01DBC318C6331370491E521E00293D
:10082000F3D5694608701098002800D4BAE0601E1D
:100830001090B7E07F007F080398694948436949F1
:1008400000F026FF039007200399401A002805DDD9
:1008500002003000390000F04DFC0AE04242002066
:10086000614900F047FC02000B003000390000F045
:100870003EFF6A469278662A02D1039A0A3200E065
:100880000622109B9A18142A00DD142217AB30247C
:100890001C705C1C02E032A803C8159A002A41DDD6
:1008A00032AB03C3159232A803C800F0E5FD2190D6
:1008B00006460834169D30000A2100F0FDFE0F00A8
:1008C00030000A2100F0F8FE06003037601E077085
:1008D00030000A2100F0F0FE0F0030000A2100F085
:1008E000EBFE0600A41E303727706D1EE3D10834DE
:1008F0001598083815900028CDDD219800F0D4FD1A
:1009000002000B0032A803C800F04BFE0022374B58
:1009100000F04EFF32AA03C2C5E700BFFFFFFFFF92
:10092000FFFFFF7F3198201A17A94D1C04E0401EDD
:100930000399491E03916D1C29783029F7D0694627
:100940008978662902D10399491C06E069468978AD
:10095000652901D1012100E00021109A5418A0421C
:1009600000DA441E002C1DD4844204DA285D3428A9
:1009700001DD392100E030212200681E831801E0EA
:10098000641E5B1E521E1E788E42F9D0392902D198
:10099000A95C491CA954002A04D50500641C0398CD
:1009A000401C0390039E1595684600786946487080
:1009B00000F060FC406A007869460870109D20B223
:1009C000002804DC0124054878441030159068465E
:1009D000807866280CD1761C24E000BF50540000BB
:1009E00097750000A08601000000F03F84D7974172
:1009F00068468078672847D130B20321C9438842CE
:100A000048DBA84246DA761C04A8008F1499C0B2CD
:100A1000084203D120B2A84200DC050030B22D1AF2
:100A200000D500250A990798401837B2002F00DD3D
:100A3000B8E0491C0A9130210170002D05DC04A8A2
:100A4000008F1499C0B2084206D00A98411C0A913E
:100A500069460978079A11547842854200DA6E4255
:100A600036B270420D90AD1920B2854200DA2C00EA
:100A700024B20B942200159907980A9BC01800F025
:100A80005DFC281B0E90D3E068464078612818D1A1
:100A900070201BE020B2A84206DA04A9098F149A3C
:100AA000C9B2114200D105006D1E00D5002568466F
:100AB0004078672802D16520694607E045206946ED
:100AC00004E068464078412801D1502048700A98D7
:100AD000411C0A9115990978079A11541598411CDF
:100AE000002D05DC04A8008F149AC0B2104219D062
:100AF0000A98421C0A926A461278079B1A54002DE3
:100B000010DD641E20B2854200DA2C0022B2079864
:100B10000A9BC01800F012FC24B20A9800190A902F
:100B2000281B0D9007980A9940186946497801706A
:100B300031B2002903D42B214170871C03E02D2200
:100B40004270871C4E42002414AD300008E00A2198
:100B500000F09EFD32AA03C229703298641C6D1CFD
:100B600000B20028F3DC012C08DC68464078202124
:100B70000143652902D1302038707F1C002C09D137
:100B8000302038707F1C07E0641E14A8005D3030F0
:100B900038707F1C002CF7DC07980A994018381A27
:100BA0000B9045E021B232B291421ADA22B2159985
:100BB00000F0C4FB24B20A9800190A90391B0D9169
:100BC000002D05DC04A9098F149AC9B2114206D080
:100BD00069460978079A11540B98401C0B900E95A2
:100BE00026E0159900F0AAFB0A98C0190A90A41BE8
:100BF000002D05DC04A9098F149AC9B2114205D051
:100C0000411C0A9169460978079A115420B285421D
:100C100000DA2C0022B21598C11907980A9BC01857
:100C200000F08CFB24B20A9800190A90281B0D9042
:100C300004A83821405C14210140102901D0FFF79D
:100C40008FFB09980A9940180D9940180B99401884
:100C50000E9940181199884201DBFFF781FB081AB1
:100C6000FFF702FC04AA3A20105C622808D068282A
:100C70000ED06A2814D06C281DD0712810D01AE02C
:100C8000369801680868091D369B1960C0B218E0E3
:100C9000369801680868091D369B196080B210E01B
:100CA00036980368DB1D072083433698036003CB27
:100CB000369C236006E0369801680868091D369B5B
:100CC0001960002104AB03C3108F1499C0B208420D
:100CD0005BD004A803C8002901D1002855D068467C
:100CE00000782021014378294FD1099822A9302288
:100CF0000A54401C421C09926A4612780A5444E085
:100D000004AA3A20105C622808D068280ED06A280D
:100D100014D06C281DD0712810D01AE036980168C4
:100D20000868091D369B196040B218E036980168C2
:100D30000868091D369B196000B210E036980368F8
:100D4000DB1D072083433698036003CB369D2B6061
:100D500006E0369801680868091D369B1960C117BE
:100D600004AB03C3002902DA09982D2109E0108F92
:100D7000204202D009982B2103E0C00705D509982D
:100D8000202122AA1154401C099022A80999401838
:100D900007906846017804A800F01AF9FFF7E0FA16
:100DA00004A83A21405C6C280BD0012009903698A9
:100DB00000680168001D369A106022A80170FFF7D4
:100DC000CFFA369800680168001D369A10601491B9
:100DD00000201590C043109014AAFFF7ECFA2520CC
:100DE00022A908700120099068460078002801D1E6
:100DF000FFF7B6FA4A700994FFF7B2FAFEB506009B
:100E00000D001700686B6969401A296A401AA969C0
:100E1000401A696A401AE969401AA96A401A0190A1
:100E20003820285C400710D42020694608700198BB
:100E300000280ADD019C01236A462900300000F0E9
:100E400081F9002860D1641EF5D13A006B69290050
:100E5000300000F077F9002856D130276846077037
:100E60002C6A002C09DD01236A462900300000F0BD
:100E700069F9002848D1641EF5D1AB69EA682900F8
:100E8000300000F05FF900283ED1684607706C6AB8
:100E9000002C09DD01236A462900300000F052F9D8
:100EA000002831D1641EF5D1EB69E868A9694218C0
:100EB0002900300000F046F9002825D16846077067
:100EC000AC6A002C09DD01236A462900300000F0DD
:100ED00039F9002818D1641EF5D13820285C400764
:100EE00010D5202069460870019800280ADD019C71
:100EF00001236A462900300000F024F9002803D1BC
:100F0000641EF5D1002001E00020C04303B0F0BD15
:100F1000F0B5A7B004000D0016002F6B002F00D510
:100F2000854F00F007FD696B081803A90022002314
:100F30000CC1812838D2029206940095002425E045
:100F4000AF4234DB00984069401981280BD30098E8
:100F5000446307AA00990698FFF750FF0290002803
:100F600025D4009844610098406905902A0001A9A1
:100F700007A8059BC01800F0E1F9059840190099F1
:100F800048613068002812D0361D7F1B002F0EDD0F
:100F900003AA316801A800F068F9050004D430689C
:100FA0000028CDD16D1ECBD50020C0430EE0069B9E
:100FB000009C0298002804D107AA21001800FFF71E
:100FC0001DFF002802D100216161616327B0F0BDDF
:100FD000F2B586B0040025696F2901D1082707E022
:100FE000084620210143782901D00A2700E0102774
:100FF0003C2603CC083C04AA03C26A46127E642A3B
:1010000003D06A46127E692A09D1002907DA04A8AA
:1010100003C800220023121A8B4104A80CC004A8A4
:1010200003C800290DD100280BD1206B002808D15E
:10103000082F3DD13820205C000739D53B263020D1
:1010400035E00294009504A830C8761E0196200071
:1010500029003A00FB1700F072FC3032D0B23A2877
:101060000DDA00988255200029003A00FB1700F0A5
:1010700066FC04000D0007D1002C05D10AE068468B
:10108000007E8218AF32ECE70298C0680099891997
:101090008842DAD3029C009D082F09D13820205CB9
:1010A000000705D5A85D302802D0761E3020A8554F
:1010B0003C20801BA061A919E160216B884206DAFF
:1010C000081A2062208F1D490140218710E0002965
:1010D0000ED53821615C14220A40102A08D1616BB8
:1010E0006269891A226A891A081A002800DD2062BA
:1010F00007B0F0BDF8B50026114F04000D000092B6
:1011000014E0C00707D532003B002000290000F0A2
:101110004FFB04000D000098401000903000390093
:1011200032003B0000F044FB06000F00009800284E
:10113000E7D120002900F4BDFFFFFF7FEFFF000093
:1011400000002440F8B50024002B11D007000E0049
:1011500014001D002178B068B847B060002809D09D
:10116000F06A401CF0620020641C6D1EF2D1040085
:101170002000F2BD0020C043F9E7F1B40168421835
:1011800041684808131800988068C9071ED5494669
:1011900040181BE01778521C0770401C761EF9D1CE
:1011A000002C13D01678521C89080D40032D01D154
:1011B0001578521C290271184D424119A41C05D002
:1011C0000D78491C0570401C641EF9D19A420FD05D
:1011D0001178521C032503260E4002D11678F61C06
:1011E000521C0C090F2CD9D114780F34521CD5E79E
:1011F00000980C30F2BC70472048704730B45368F8
:10120000D41803E05B1C491E641C401C042B06DA46
:10121000002904D0057825700578002DF2D153609F
:1012200030BC704738B500290ED01D001400FFF700
:10123000E5FF616820006A6B90470122D243811A62
:1012400002D0491E02D004E0012000E00020C0438B
:1012500032BD0021616032BD80B5DA6B904702BDBE
:1012600080B5064BFFF7DEFF02BD80B5034BFFF7ED
:10127000F3FF02BD02487047000000009800002004
:1012800060000020C9B202788A4203D0401C002AC4
:10129000F9D1002070472E0080B5002801D100BF91
:1012A00007A006490B68002B03D022220021984793
:1012B00001E000F082FB222002BD0000D4040020E7
:1012C000636F6E73747261696E742068616E646CB2
:1012D00065723A20626164206D65737361676500B1
:1012E000431C0178401C0942FBD1C01A70474300DF
:1012F000C9B2521E05D30378401C8B42F9D1401E5F
:10130000704700207047FEE770B4103A03D378C9E5
:10131000103A78C0FBD2530701D318C918C001D5C1
:1013200008C908C0D20704D30B880380891C801C1D
:10133000002A01D50B78037070BC70478B0701D170
:101340008307E1D0124205D00B78491C0370401C82
:10135000521EF9D1704710B5144600F002F8226011
:1013600010BD4A0053155B1C08D0520D06D0032354
:101370001B02FE3AD21A1305C91A704700227047A1
:1013800030B4012464054D00EC420BD85D00EC4202
:1013900008D80C001C4364000443144304D299424F
:1013A00000D1904230BC7047FCD08B42FAD18242CF
:1013B000F8E730B4012464054D00EC420BD85D0021
:1013C000EC4208D80C001C4364000443144304D2CC
:1013D0008B4200D1824230BC7047FCD09942FAD196
:1013E0009042F8E7124217D40023DB435B0D9C4682
:1013F0004B005B0D06D0634504D09B18634502D2B9
:101400001205891870476246090D1143090500202D
:1014100000B500BF00BF00BD52424B005B0DF1D0D4
:101420005B1C5B05EED25B0D934102D91205891A54
:1014300070470BD10B031B13C90FC907821C002077
:1014400043411343E4D912051143E1E7C90FC9072A
:101450000020DDE7F4464A1805D200F00FF801D568
:1014600080174008604700F009F80121C907884249
:1014700000D90800404260474A1812D2400DC90204
:1014800008430121C9070843520D40210901521A9E
:10149000521C06D452421F3201D4D0407047C017AC
:1014A000704700207047FEE7010042221201D21E61
:1014B000004207D002D4521E0018FCD5C10A4005D4
:1014C00012058918704700000100EED54042F4462D
:1014D000FFF7EBFF0122D20711436047F0B401256B
:1014E000ED070F005F404FD48B4200D1824205D9F7
:1014F0008446100062468C4619006346DF184C187B
:10150000640D7F0D3AD0661C760537D0E61B352E6C
:1015100034DCDB022B43DB0A0C0DC9022943C91260
:10152000202E0DDB1700203E06D01F00F741F340B0
:101530005F400026012A7741C01871410DD217E0A3
:101540001700F741F2405740F3415A40B340F3408F
:101550005A400026801859410AD3A21C52050FD0C8
:10156000C207012F724117004008CB0718434908F2
:10157000641C24054208AF4170416141F0BC7047D2
:10158000641C21050020F9E76B4010E06B40ABE7DD
:10159000F742F3D1E943F1E72442EFD100200021E3
:1015A000ECE7F0B40125ED070F005F40EED40C002E
:1015B000871A9C4105D2C01BA141D21963416940E1
:1015C0006B40AE0ADF184C18F442E1D2640D7F0D77
:1015D000E2D0E61B362ED1DCDB022B43DB0AA4462D
:1015E0000C0DC9022943C90A012E28DC04D1D607F3
:1015F0005208DF073A435B08EF0A7642904199416F
:1016000014D039423BD1B61940414941761C394288
:1016100004D1761C001849413942FAD0B9436746D3
:10162000B74208D9A41B24052143A7E70042EAD109
:101630003642E8D1A2E7E40AE10700209EE7202E27
:101640000BDD203E1F00F340F7415F40012A0022DE
:1016500057417E42984191410BE01700F741F2401B
:101660005740F3415A40B340F3405A407E429041C4
:1016700099410A0303D2641EB6194041494100272B
:10168000641E24054208AE4178416141F0BC7047B8
:10169000CA0F00D0494203105A400DD004B500D300
:1016A000404200F009F8009AD20701D349421242A1
:1016B00000D5404204BD0000094214D088420FD337
:1016C0000122030C01D100041204002300185B4125
:1016D0008B4200D35B1A5241F8D3190010007047B7
:1016E00001000020704708B500F06CF908BDF0B4A7
:1016F0000E005E400125ED072E40B446AE0ADF180D
:101700004C18F4423BD2F74241D2640D43D07F0DD6
:1017100038D0E41BC902DB0229432B43CF0ADB0A82
:101720000600B61A9F4104D2641EB6197F41B6184E
:101730005F416812800D24180018844222DCE80CF6
:101740000021B6197F41B61A9F4102D2B6185F41F7
:101750003F1C40414941F4D3241C21DD2405B61926
:101760007F41B61A9F4105D33743C607374300264A
:10177000012F7041614166463143F0BC7047FCD196
:10178000F74205D20020C14349054908F3E704D0D8
:101790000020C143F1E77F0DFAD000206146ECE75D
:1017A0002442FAD1401C61410F03F6D30020E2E746
:1017B000F0B50E005E400125ED072E40B446AE0A9E
:1017C000DF184C18F44208D2F7420ED2640D01D053
:1017D0007F0D12D100206146F0BD05D1F74201D83E
:1017E0007F0D05D10020C143F0BDFBD1640DF9D0C0
:1017F0000020C143490549088FE0E419C902DB0212
:1018000029432B43DB0A460DC00231438E4630B4D8
:1018100087B295B27D432E0CADB2140C7C43A41953
:10182000260C240425439CB27C43A419190C79434B
:10183000270CC919A4B20F043C43090C000C97B241
:1018400047432E0CBE193543ADB2170C4743360C37
:10185000BF19A6B2BF193E043543240C3E0C3619FD
:101860009FB24743BF19BCB23E0C89191F0C4743B6
:101870007F183E043443390C704680B297B2474318
:101880002E0CBE193543ADB2170C4743360CBF19A9
:10189000A6B2BF193E043543240C3E0C36199FB244
:1018A0004743BF19BCB23E0C89191F0C47437F1830
:1018B0003E043443390C77463F0C90B278432E0CEB
:1018C00080190604ADB22E43050CA0B22D18120CDF
:1018D0007A435019020C80B2240CA4189AB27A43AD
:1018E000121914042043120C89181B0C7B43C918CD
:1018F00030BCEF0A394203D1B61940414941641E58
:101900006F12BF0DE41B0BDBFF19BC4211DA24057B
:1019100000274208AE417841614166463143F0BD3F
:10192000641C05D1401C6141CF0201D34908F4E792
:1019300050E75DE780B5FFF75FFC006C02BD124227
:101940002DD0994231D970B500251B4209D00C0029
:10195000002112E01100FFF7AFFE0A000021002372
:1019600070BD0942F6D00024012649186441944212
:1019700000D3A41A7641F8D33100012601E0764164
:1019800009D2001864416D41A41A9D41F7D2A418F0
:101990005D41B619F5D3300022002B0070BD1B420B
:1019A000CFD108B500F010F808BD01D19042CAD2DD
:1019B00002000B0000210020704780B5012000F0DC
:1019C00005F801BD7047FEE77047FEE780B500BF30
:1019D00000BF024A11001820ABBEFBE72600020040
:1019E00010B50A000223941E0221A140884202D3AE
:1019F000521E9340C01A10BD80B5A64988600800E9
:101A00000C3000F0C1FF01BD80B50021002001F0C5
:101A100035F801BD10B5FF20543001F06BF8040219
:101A2000AA20400001F066F801002000084310BD24
:101A3000E0B50020694608700122C02000F0E0FFF8
:101A4000684600786946087101980EBD9148007893
:101A5000704701B582B06846007AC000082108408E
:101A60006946097A49000422114001436846007A18
:101A700040080222104008436946097A0907CA0F44
:101A80000243684602700020BC4908700122694682
:101A9000842000F093FF07BD01B501226946802034
:101AA00000F08CFF68460078002801D1012000E09A
:101AB0000220A9E080B500220021C12000F07EFFB5
:101AC0000320A1E011B581B068466946097901702B
:101AD00001A949880A0A42708170A94800F046FBB2
:101AE000A64C6078022802D1012000F06DFD03228F
:101AF0006946832000F062FF0420207013BD11B5F9
:101B000081B0684669460979017001A949880A0AC5
:101B1000427081709A4800F029FB984C6078022846
:101B200002D1002000F050FD03226946822000F01F
:101B300045FF0520207013BDE0B56B461870080AFC
:101B400058709970100AD8701A710522694694204D
:101B500000F034FF05208949087007BD80B50022D8
:101B60000021C52000F02AFF4DE080B500220021B1
:101B7000D12000F023FF01BD80B500220021D2203A
:101B800000F01CFF01BD01B5684600787B49487034
:101B9000012269468A201BE378484078704738B5AF
:101BA000FFF782FC04000D000022764B002080210C
:101BB000C90501F013F802000B0000207249FFF77D
:101BC00096FD02000B0020002900FFF790FDFFF7B3
:101BD00053FC6946020C0A70020A4A70887003229C
:101BE000862000F0EBFE31BD80B56A4612301070E1
:101BF0005170022269468E20EAE201B5012269464F
:101C0000882000F0DBFE06205C49087001BD80B52D
:101C10006A4610705170022269468F20D8E238B5AA
:101C200004002078554D6978814201D0FFF7ABFF61
:101C300068462178002909D0491E01290CD9891E3E
:101C400013D0491E17D00B391BD01DE061780170ED
:101C5000A1784170E17816E02179017061794170D5
:101C6000A17981706079A8700EE0E1790170217A24
:101C70004170617A07E0A17A0170E17A4170217BBD
:101C800001E0017041708170032269468B2000F0F1
:101C900095FE31BD4C0000201CB50400207837496A
:101CA0004978814201D0FFF76EFF00216846227813
:101CB000002A09D0521E012A14D9921E1ED0521E8B
:101CC0002AD00B3A31D033E061780170A1784170AD
:101CD000E17881702179C17061790171A1794171D7
:101CE000E17924E0227A0270627A4270A27A8270EC
:101CF000E27AC270227B0271417118E0617B01704F
:101D0000A17B4170E17B8170217CC170617C01719C
:101D1000A17C4171E17C0AE0227D0270627D42700B
:101D2000A27D8270E27DC27000E0016081808171DD
:101D3000072269468C2000F041FE13BDF8B507006C
:101D40000C0002226946172000F05AFE0B4D6E4629
:101D50006878012808D10D4800F0CCFEC00903D0F6
:101D60000B4800F0C7FE04E068780428307800D102
:101D7000801C387070782070F1BD00004C0000208D
:101D8000FFFF000000003240A8CB8841030900009B
:101D900001090000FEB50400052201A91D2000F084
:101DA0002FFE0E484678267001A8017849084A425D
:101DB00069460A700421082202230025002E0FD054
:101DC000761E012E14D9B61E00D18BE0761E00D1EE
:101DD00032E10B3E00D194E1F7BD00BF4C00002082
:101DE0006E4636786670467876087742A77012E0BD
:101DF0006E46367866704678802E01DAB60809E0BD
:101E0000FF27FF43F6190096009E7610B60F009F3D
:101E1000F619B610A670E678FE273740BC468678DD
:101E20007706FE0F67463E436F467E706E467678B5
:101E3000E67086787609F60701D53B7000E03D70C4
:101E40006E467778FD263E406F463F7837436E46B4
:101E50007770E770012687783F0937406F4601D0D9
:101E6000397000E03D7069464978FB270F406946AC
:101E700009783943E1708778FF08374000D10022A4
:101E8000F7270F403A43E27081788908314000D04B
:101E90001021EF2717403943E1708278520816402D
:101EA00001D0202200E00022DF260E403243E27003
:101EB0008178C90701D5402100E00021BF261640E6
:101EC0003143E1702279FE211140C2789606F20F6B
:101ED0000A432271C178C90700D40023FD211140B3
:101EE0000B4304E16E463678667046787608774292
:101EF000A770E678FE273740BC4686787706FE0F47
:101F000067463E436F463E706E463678E67086788A
:101F10007609F60700D400236E463678FD27374051
:101F20003B436E4673706B465B78E37001238678A3
:101F300036091E406F4601D0397000E03D706E4694
:101F40007778FB263E406F463F7837436E46777082
:101F5000E7708678F6081E4002D06E46327001E0C7
:101F60006F463D706E467778F7263E406F463F7865
:101F700037436E467770E7708678B6081E4003D008
:101F800010266F463E7001E06F463D706E467778D2
:101F9000EF263E406F463F7837436E467770E770D6
:101FA000867876081E4003D020266F463E7001E0FA
:101FB0006F463D706E467778DF263E406F463F782D
:101FC00037436E467770E7708678F60703D540266C
:101FD0006F463E7001E06F463D706E467778BF26D3
:101FE0003E406F463F783743E7702779FC263E40F6
:101FF000C778BF0937436E46377036782671C67882
:1020000076091E4000D100216E463678FB27374006
:1020100039432171C6783609334000D10022F723B5
:102020000B401A432271C178C90700D51025EF2152
:1020300011400D4325715BE06E4636786670467838
:1020400076087742A770E678FE273740BC46867848
:102050007706FE0F67463E436F467E706E46767883
:10206000E670012687787F0937406F4601D03B70C4
:1020700000E03D706B465B78FD271F406B461B7888
:102080003B43E37087783F09374000D10021FB27AD
:102090001F403943E1708378DB08334000D10022D0
:1020A000F7230B401A43E27081788908314000D051
:1020B0001021EF2313401943E17082785208164033
:1020C00001D0202200E00022DF230B401A43E270FF
:1020D0008178C90700D54025BF2111400D43E57027
:1020E0002179FE220A40C178CB07DB0F134323710D
:1020F0006179F8220A4000794007400F104360716F
:10210000F7BD0621200001F0B7F80F202070F7BDC1
:1021100080B500206946087001221F2000F070FC85
:10212000684600784108484240B202BD3EB56C4660
:10213000050A25706070080AA070E170100A20710D
:102140006271180AA071E371082269468D2000F0BF
:1021500035FC37BD80B502226946152000F050FCE1
:102160006946087800024978084302BD80B569468F
:10217000020A0A7048700222972029E001B582B055
:102180006846007A8006800E694608700122892020
:1021900000F014FC07BD01B501226946962017E046
:1021A00080B500220021D52000F008FC01BD80B5DB
:1021B000213869460204120E0A704870022206E0B5
:1021C00080B568460021017041700222694698205E
:1021D00000F0F4FB01BD01B5012269469E20F7E73E
:1021E00001B5012269469B20F2E780B50A00010093
:1021F000002000F087FC01BD7CB504000E00150036
:1022000069463000FFF79AFD3278954201D20120ED
:1022100076BD21006846007800F095FC002076BD70
:1022200010B514000A000100002000F06BFC200033
:10223000FFF748FC10BD10B504227C4C6478002CDC
:1022400004D0032C13D0042C1BD01EE0052201283F
:1022500004D01AD3032808D005D316E0744800F040
:10226000F5FB002010BD7348F9E77348F7E7012834
:1022700009D00AD3032802D007D2A048EFE7A0482C
:10228000EDE7012801D1B448E9E7012010BD38B5D8
:102290000500C04C200000F02DFCF0220240290770
:1022A000090F114369E180B56946020A0A70487056
:1022B0005E484078002801D0032803D10222B648A6
:1022C00000F0C4FB01BD10B50400210EA24800F0CF
:1022D000D5FB2102090E9D20000100F0CFFB210457
:1022E000090E9E4800F0CAFBE1B2AC4843E080B55D
:1022F000AB48FFF7E8FF01BD80B56946020A0A70E6
:1023000048704A484078002801D0032803D10222AF
:10231000A44800F09BFB01BD80B501004348407814
:10232000002802D0C01E012802D89F4800F0A6FB5A
:1023300001BD10B59D4C200000F0DCFB8021014365
:10234000200000F09BFB0A3C200000F0D3FBFE21A4
:1023500001400FE010B5954C200000F0CBFB41068A
:10236000490E200000F08AFB0A3C200000F0C2FB6E
:1023700001210143200000F081FB10BD38B50400AD
:102380008B4D280000F0B6FBF02101400C432100EA
:102390002800F3E010B5874C002807D001280DD1A4
:1023A000200000F0A7FBC021014304E0200000F062
:1023B000A1FB8106890E200000F060FB10BD38B53E
:1023C00005001A48407802280BD17B4C200000F011
:1023D00091FBAA018106890E1143C9B2200000F0C9
:1023E0004DFB31BD80B56946020E0A70020C4A7081
:1023F000020A8A70C8700D484078022803D104226E
:102400006E4800F023FB01BD80B56946020E0A70DC
:10241000020C4A70020A8A70C87004484078022888
:1024200003D104228A4800F011FB01BD4C000020BA
:10243000CE090000D3090000D8090000F8B5002437
:1024400000255F494978022955D107000120FFF78F
:1024500023FB5C4E300000F04DFB022101433000B5
:1024600000F00CFB5B3E300000F044FBCF2202404A
:102470003801302101401143300000F0FFFA754867
:1024800000F038FB0604744800F034FB01023143CD
:102490000E00724800F02EFB304306000020FFF7CC
:1024A000FBFA002F03D07F1E022F17D923E018213B
:1024B0003000FFF795FAFFF707F804000D0000F071
:1024C000CFF8FFF701F802000B0020002900FFF70A
:1024D0000EF900226E4BFFF76BF90AE03000FEF7B1
:1024E000E3FF0022704BFFF763F900227B4BFFF7FD
:1024F000FEF804000D0020002900F4BDD4090000FE
:10250000D909000010B50120FFF7C6FA2D4C2000B4
:1025100000F0F0FA02210143200000F0AFFA5B3C2A
:10252000200000F0E7FACF210140200000F0A6FAD9
:102530006B4800F0DFFA10BD10B504002048407869
:10254000022807D1210A594800F098FAE1B26548FB
:1025500000F094FA10BD0000CF090000D10900007E
:1025600038B5534C200000F0C5FA05002021014386
:10257000200000F083FADF212940200000F07EFADD
:1025800031BD80B501007F2800DA7F21564800F078
:1025900075FA01BDCD090000C8090000D20900008C
:1025A000D6BE898EC6090000C50900009F0800003C
:1025B0009E08000091080000310900001609000083
:1025C0004C0000207F09000080B569460870012298
:1025D000A320FDE5000000200021364A5278521E5B
:1025E000012A00D9704738B5334800F083FA050452
:1025F000324800F07FFA04022C43314800F07AFAA6
:10260000142120430003000BFFF7EAF9FEF75CFFFB
:102610002CA20CCAFFF7CCF804000D0000F020F843
:10262000FEF752FF02000B0000202849FFF75FF879
:1026300000222E4BFFF7BCF802000B0020002900FF
:10264000FFF755F834BD01201A49C87070470000E3
:10265000120900006109000062090000630900001E
:102660000020144989780A290BD0182907D0262977
:1026700003D0342906D116487047164870471648CB
:1026800070471B48704700200A49C8707047000017
:10269000A3E1E14080B50748C178012901D101716A
:1026A00001BD00F027F801BD000034402C090000F6
:1026B000230900004C0000205409000055090000C7
:1026C00056090000CDCCCCCCCCCCF83F00009940D2
:1026D00075190300EA320600D4650C000000594069
:1026E000640900002D0900001E09000000408F4011
:1026F000A8CB1800FEB5944C2078002800D121E129
:10270000E078012806D12079012821D172B6002075
:10271000207162B6607869460870FFF71BFD0500FE
:102720008A48FFF723FD207801904020022106020D
:10273000870001226B461B78002B05D0022B00D1AD
:10274000ABE039D3032B03D1019B042B36D0052BEF
:1027500000D0F7E0082729401AD0284007D0A06809
:1027600000281ED08169002912D0022008E03D42D5
:10277000A06807D0002869D08169002908D001200D
:10278000884705E0002869D04068002800D08047CD
:10279000680706D5A068002860D08068002800D0AF
:1027A00080472F406FD0A068002857D0816900294A
:1027B00069D00120884766E0019B042B3CD04DD3B3
:1027C000062B4CD04AD2294010D02840A06807D010
:1027D000002814D08169002908D00220884705E02C
:1027E00000280CD04068002800D08047E80606D5B5
:1027F000A06800280DD0C068002800D08047A80637
:1028000007D5A068002829D08169002901D00020BF
:1028100088472E4006D0A06800281FD040690028B5
:1028200000D080472F4019D0A068002816D08169B9
:10283000002913D003206FE02A4006D0A0680028AA
:102840000CD00068002800D080472E407AD0A068C5
:10285000002877D00069002874D08047F7BDE804CD
:1028600011D5A804A06806D500286BD0016A0029FC
:1028700068D0012005E0002864D0016A002961D0F9
:1028800000208847F7BD2E405CD0A068002859D0B2
:102890004069002856D08047F7BD019804283DD0F4
:1028A00005284FD12F4007D0A06800280ED0C1695D
:1028B000002901D000208847280507D5A0680028F6
:1028C0000ED0C169002901D001208847280607D50C
:1028D000A06800280ED0C169002901D001208847D6
:1028E0002E4007D0A06800282CD0C169002901D053
:1028F00000208847E80606D5A068002822D0C068D6
:10290000002800D08047A8061CD5A068002819D050
:102910008169002916D000208847F7BD680507D5D2
:10292000A06800280ED0C169002901D00220884784
:10293000A80507D5A068002804D0C169002901D0E6
:1029400003208847F7BD00004C000020FFFF000077
:1029500080B51300944A00920A000100934800F0E9
:102960002FFE01BD80B50A008F4B01008F4800F09B
:1029700026FD01BD80B5802109019020C00501F030
:10298000A7F90128F7D001BD80B500F001F801BD1D
:1029900010B5142001F0CAF9854C00220421200052
:1029A00001F09CF9322001F0C1F90122042120003C
:1029B00001F094F9142001F0B9F910BDF2B5050049
:1029C0001400FFF7D7FF80267601002231007848F7
:1029D00001F084F9774F3D7022000099781CFEF7D2
:1029E000ADFC641CA1B23800FFF7BCFF012231002E
:1029F0006F4801F073F9842D01D0FFF7BBFFF1BDE3
:102A0000FEB5971C6B4C207000236370002503E01B
:102A1000AEB2A619B3706D1CA8B29042F8D3684646
:102A200002800191FFF7A6FF614E80256D01002213
:102A30002900300001F052F9BAB22809211820000B
:102A4000FFF786FF68460288812046E0F8B514004B
:102A5000584D18222A70020A6A70A8702200E81CD9
:102A6000FEF76CFCFFF786FF514F802676010022AF
:102A70003100380001F032F9E41C58E002B50122BF
:102A80006946FFF7E3FF01BDFEB5171D494C192349
:102A90002370030A6370A0700020E070002503E03B
:102AA000AEB2A61930716D1CABB29342F8D3684632
:102AB00002800191FFF75EFF3D4E80256D010022EF
:102AC0002900300001F00AF9BAB2280921182000C3
:102AD000FFF73EFF684602888220400021180198D7
:102AE000FEF72CFC01222900300001F0F7F8FFF777
:102AF00041FFF7BD80B501226946FFF7C5FF684673
:102B0000007802BDF8B514002A4D1A222A706870A8
:102B10002200A81CFEF712FCFFF72CFF244F802692
:102B2000760100223100380001F0D8F8A41CA1B2CF
:102B30002800FFF717FF01223100380001F0CEF81E
:102B4000FFF718FFF1BDFEB51500D31C6C462380BE
:102B5000184C1B23237060700020A070002603E037
:102B6000B7B2E719F870761CB3B29342F8D301916B
:102B7000FFF700FF0E4F802676010022310038005B
:102B800001F0ACF868460288300921182000FFF7F0
:102B9000DFFE2A00FF20001D21180198FEF7CEFB62
:102BA000012231003800A0E7FFFF0000AC03002045
:102BB000000400482801002038B59024E405802155
:102BC0000901200001F084F805000221200001F035
:102BD0007FF840002843C0B232BDFEE7F8B50CB420
:102BE0008EB00EAA30CA74A20CCA22402B4002D169
:102BF000002A00D12AE302AA03C202A80CC80020BE
:102C00006C4901F0A7F800D120E30EA803C8009199
:102C100002A80CC80020CC4901F09CF806D169003C
:102C20004915491C02D1280300D10FE302A803C8AB
:102C3000019148004015401C00D1EFE102A803C8F3
:102C400006AA03C206A803C85BA20CCA02400B4036
:102C500002D1002A00D1E1E168004015401C00D1FA
:102C6000DCE1200029000B0002185B4104D1002A9E
:102C700002D10EA803C818E0B44E5A0DB61A352E6C
:102C800006DB002280231B060B4004A80CC00EE0CC
:102C9000202E03DD203EF140B14000E001D10020B4
:102CA00003E0002E01DDF040B04004AA03C206A8F4
:102CB00003C8C80F1CD0002D06DA002080210906A9
:102CC000001BA94104000D0004A803C8002906DA6E
:102CD000002280231B06121A8B41100019008D421E
:102CE00001D1844204D000BF00BF33A003C8AFE2CB
:102CF0006A4602A803C8FEF72EFB04000D00C80FA9
:102D000040D06D006D0804A803C802AA03C202A83F
:102D10000CC89018494101D1002817D08C4E480D9D
:102D2000361A352E05DB80210906194000220B00DA
:102D30000CE0202E03DD203EF340B34000E001D143
:102D4000002203E0002E01DDF240B24002A803C8D9
:102D5000002905DA002680273F06361A8F4101E058
:102D600006000F00002B06DA002080210906801AD9
:102D7000994102000B009F4203D1964201D10020ED
:102D800000E0012005900098012819D120002900B9
:102D9000BCA20CCAFEF7F4FA12D200200190054939
:102DA00002AA03C2012220002900FEF71BFB040037
:102DB0000D0022E00000F03FFFFFFFFFFFFFFF7F5D
:102DC0000020AE4922002B00FEF7F2FC0022AF4BA0
:102DD000FEF784FBFEF73EFB20380190FEF774FB04
:102DE0000022A74BFEF7E4FC0022A84BFEF776FB7F
:102DF00002AA03C20198400101902000290002AA02
:102E00000CCAFEF7CEFB06000F0002A803C8220082
:102E10002B00FEF763FB02000B0030003900FEF7C9
:102E200066FC06AA03C206A80CC806A803C8FEF7DB
:102E3000BFFC06000F002000290002AA0CCAFEF702
:102E4000B0FB08AA03C2C5A003C832003B00FEF7CE
:102E5000AFFCC4A20CCAFEF741FB32003B00FEF7F8
:102E6000A7FCC2A20CCAFEF739FB32003B00FEF7FA
:102E70009FFCC0A20CCAFEF731FB32003B00FEF7FC
:102E800097FCAAA20CCAFEF729FB32003B00FEF712
:102E90008FFCA8A20CCAFEF721FB32003B00FEF714
:102EA00087FCA6A20CCAFEF719FB32003B00FEF716
:102EB0007FFC08AA0CCAFEF774FB04000D0000207A
:102EC000A54902AA0CCAFEF76CFB0122FEF78AFA9A
:102ED00022002B00FEF702FB06AA0CCAFEF768FCD4
:102EE00002000B001B4878446A300199461808A874
:102EF00003C8FEF7F3FA06AA03C20098FEF7E4FA45
:102F00000CCE083EFEF7EAFA04000D0006A80CC835
:102F10008CA003C8FEF74CFC22002B00FEF7DEFA63
:102F20000EAA0CCAFEF744FC0022884BFEF728FAD2
:102F30006AD30122864BFEF73CFA62D9CA0F0BD046
:102F40000022844B09E000BF0000F0BF3304000002
:102F500034040000142900004C4BFEF7BFFAFEF7C2
:102F600079FA0700009700227B4B0392049322001A
:102F70002B000EA803C8FEF71BFC04000D00380050
:102F8000FEF7A2FA02000B0020002900FEF709FB61
:102F9000B7A20CCAFEF70CFC0190029106A80CC85F
:102FA0000EA803C8FEF704FC04000D003000083032
:102FB00003C8320010320CCAFEF790FA02000B0070
:102FC0000EA803C8FEF7F4FBA9A20CCAFEF7F0FB9B
:102FD00022002B00FEF782FA019A029BFEF77EFA8E
:102FE000039A049B00F0C8FE9BA20CCA02400B404F
:102FF00001D1002A08D04B005B155B1C06D10A03E7
:1030000004D10020994901E000200021059A002AFE
:1030100000D11DE180221206514019E1084641000D
:103020004915491C059103D1000301D002A807E00E
:1030300069004915491C049104D1280302D00EA847
:1030400003C805E1012668004015401C00D1B6E028
:10305000200029000B0002185B4104D1002A02D194
:103060000EA803C821E07E4F5A0DBA1A352A0FDB8D
:103070000B00002080210906194016E00000504096
:103080000000903FCD3B7F669EA0E63F0000E03F02
:10309000202A03DD203AD140914000E001D10020F8
:1030A00003E0002A01DDD040904006AA03C22000C0
:1030B0002900002907DA002280231B06121A8B41FF
:1030C0000CA80CC001E00CAA03C206A803C80AAAF7
:1030D00003C20AA803C8002907DA002280231B06BE
:1030E000121A8B4108A80CC001E008AA03C20CA860
:1030F00003C808AA0CCA994201D1904200D0002608
:103100000AA803C80B0002185B4104D1002A02D1AF
:1031100006A803C83FE0534F5A0DBA1A352A2DDBD3
:103120000B00002080210906194034E04AE98A9406
:103130002449D23FF75F97999999D93FBC55555586
:103140005555E53FFE822B654715F73F0000E0C06F
:103150000000E0400000E0BF0000F03FF7DE29BFC4
:10316000D8F8C23FF4B3FECC1A99C33F62CB68D9FA
:103170006F46C73FC6C912DAC471CC3F202A03DDAF
:10318000203AD140914000E001D1002003E0002A24
:1031900001DDD0409040002E11D008AA0CCA0029B1
:1031A00006DA002680273F06361A8F4130003900A4
:1031B0008B4203D1824201D1002600E00126019812
:1031C0000599002908D1000306D102A803C8C80F39
:1031D00012D1EC0F38D030E00499002915D1280322
:1031E00013D16A4602A803C8FEF7B5F8EC0F0098A1
:1031F00018D1002814DC19E0EC0F03D1002E20D1E7
:10320000002021E0002E11D006E0002E11D1002078
:10321000EC0F14D1002810D000208021090617E0FF
:10322000002011E0002801DC00200DE0002000213A
:103230000EE002A803C8C80FEAE7002108E0002852
:1032400002D00020084903E0084901E000200149BC
:1032500011B0F0BD0000F03FFFFFFFFFFFFFFF7F59
:1032600033040000340400000000F0FF0000F07F91
:10327000EF39FAFE422EE63F002200BF094202D09B
:10328000491E4254FCD17047F8B5040001D1012019
:10329000F2BD82277F000025606A002804D16068A3
:1032A000B84203D0E56101E02561656126005C3626
:1032B0007078002803D13570200000F0FBFE02205A
:1032C000707021680A6840239A430A60E268E0212E
:1032D000C9008A4205D90021F0231B019A4205D179
:1032E00005E0C102E023DB009A4200D0A562012282
:1032F00063681F40BC46A76884231B023B406746A7
:103300003B43276907401F43636913403B439C4687
:10331000A76903021F4063461F43BC46277F38232B
:103320003B4067463B439C462023E75C80231F408D
:1033300063461F43BC46A36A07033B4067463B43C3
:1033400027683B60A36A0703BB4212D1236B002BA3
:1033500008D1E368E027FF00BB4201D9206303E006
:10336000226306E0022B04D120680368D7021F43C2
:103370000760A069030C042003402420205C102770
:10338000384018433423E35C08273B400343E0689C
:10339000F0273F0107401F43394320684160A06A7E
:1033A0005103884202D1E06A216808612068C1693E
:1033B000804B0B40C361756072700020F2BDFCB59C
:1033C00083B004000E0000274430007E012801D1A4
:1033D0000220EBE01500012021004431087600F0C6
:1033E0009FFE0290280021004431497E012901D02E
:1033F0000227D4E0002E00D0290000D1CEE0032126
:1034000022004432517622004432D761A663A58758
:10341000E58727644422A7522200443257802200C5
:103420004432D760220044329760A16880221202A1
:10343000914209D121680A6840239A430A602168B1
:103440000A681B0213430B60A16A80229201914219
:103450000AD121680A68584B13400B6021680A683A
:1034600080239B0113430B60216840220B681340AB
:1034700002D10B681A430A6061680022D2430192AC
:10348000120C6B461A80049DE2684C4B9A4230D372
:10349000002901D001280BD1A06B00882168C860E9
:1034A000A06B801CA063E08F694609884018E08704
:1034B000029E0AE0A16B0988C160A06B801CA0631A
:1034C000E08F694609884018E087E08F002840D0E7
:1034D000206881688907EDD400F022FE801BA84295
:1034E00004D301988542F0D0032758E0002DECD199
:1034F000FAE7002901D001280BD1A06B00782168E0
:103500000873A06B401CA063E08F694609884018CF
:10351000E087029E0AE0A16B09780173A06B401C52
:10352000A063E08F694609884018E087E08F002893
:103530000FD0206881688907EDD400F0F1FD801B71
:10354000A84203D301988542CED1EFE7002DEDD1FB
:10355000CAE729003200A06A80239B01984205D166
:103560002068036880256D011D430560200000F080
:10357000BCFA002803D0202021004431C861A06893
:10358000002806D100902068C168009180680090F2
:10359000009820004430C069002800D00127200096
:1035A00044300121417600210176380005B0F0BD9C
:1035B00000000000FFF7FFFFFFDFFFFF0107000033
:1035C000F2B586B00600170000200090694608702A
:1035D000012005900020087130004430007E012851
:1035E00001D102209BE11C003500443501202876E2
:1035F00000F096FD0490697E200032680092126807
:10360000039232685268029201290BD072688223B9
:103610005B009A4204D1B268002A01D1042901D08A
:103620000220B6E00699002903D0002F01D0220025
:1036300001D10120ADE06A7E042A01D005226A761C
:103640000022EA6137646C802C80B163F487B48710
:10365000AA60EA60B16A8022920191420BD100997E
:103660000968094A0A4000990A6031680A6880239B
:103670009B0113430B603268AA49F3688B4253687D
:1036800006D3024C1C4006E0FFDFFFFFFFEFFFFF09
:10369000802464011C4354603268402314681C4039
:1036A00002D1146823431360039A04231A4003923F
:1036B0007268029B082423400293002300930C9B12
:1036C000F4688C4268D3002A01D0012809D1B06B7C
:1036D00000883168C860B06B801CB063F08F401EFA
:1036E000F0870C93059C049DF08F002804D13000D6
:1036F00044304088002867D031688B488A68920738
:1037000028D5F28F002A25D0002C23D0B26B128846
:10371000CA60B16B891CB163F18F0918F187009CF5
:10372000F18F002916D1B16A80229201914211D104
:103730000399002908D10299002905D031680A6847
:1037400080239B0013430B6031680A6880235B0170
:1037500013430B6031688A68D2070ED532004432B9
:103760005388002B09D0C968336C1980316C891CCF
:103770003164518808185080012400F0D1FC401BAE
:103780000C998842B0D308460021C9438842ABD087
:10379000032069460871BAE0002A01D0012809D146
:1037A000B06B007831680873B06B401CB063F08F69
:1037B000401EF0870C93059C049D30004430F18F2F
:1037C000002902D1418800294DD0326856499368BA
:1037D0009B0728D5F38F002B25D0002C23D0B36B6B
:1037E0001B781373B26B521CB263F28F5218F287BC
:1037F000009CF28F002A16D1B26A80239B019A4264
:1038000011D1039A002A08D1029A002A05D0326801
:1038100013688027BF001F43176032681368802732
:103820007F011F43176032689368DB070CD543881C
:10383000002B09D0127B336C1A70326C521C32642C
:10384000428851184180012400F06AFC401B0C9909
:103850008842084604D30021C943884298D1ACE786
:103860000028AAD194E70C9C0227B06A3903884249
:1038700031D10095230001220121300000F058F8D9
:10388000002805D030004430C1690F43C7617FE78D
:10389000F068F02109018842306803D1C0680090C7
:1038A000009818E00C30029000786946087068466D
:1038B0000078306B02280ED10095230001220121EF
:1038C000300000F035F80028DCD102980078694615
:1038D00008706846007830688168C90609D53100EB
:1038E0004431CA691743CF6110498160012069469C
:1038F00008712A002100300000F0F7F8002806D0F7
:10390000012069460871202031004431C86130002F
:10391000443001214176002101766846007907B0E4
:10392000F0BD000001070000FFFF0000EFFF0000F6
:10393000FEB582B006000A9C1D4600F0F1FB281A75
:10394000071900F0EDFB7C4909684901090D79432D
:10395000009100240125019006E00098002800D184
:1039600000270098401E009030688068029901404E
:103970000298814201D1012000E000206946097BC4
:10398000884235D004980021C9438842ECD000F029
:10399000C7FB0199401AB84201D2002FDDD130682F
:1039A0004168E02291434160706882214900884269
:1039B0000BD1B068E903884202D04909884204D19A
:1039C000306801684022914301606803B16A814216
:1039D00008D131680A68594B13400B6031680A6896
:1039E0001043086030005C3045700470032000E034
:1039F000002005B0F0BDFCB585B007000E000C9DA1
:103A0000002469460C700699009100F089FB00992A
:103A1000081A4019009000F083FB39680C31009AB5
:103A2000454B1B6823256B431B0D5A4301923D00F8
:103A30000296059F009E0490039106E001980028DD
:103A400000D100260198401E0190286880680299E4
:103A50000140B94245D00298C021C900884207D12F
:103A6000002F05D1039800786946087068460078F1
:103A700006980021C9438842E7D000F051FB049921
:103A8000401AB04201D2002ED8D128684168E02205
:103A90009143416068688221490088420CD1A8683E
:103AA00080210902884202D04909884204D128684D
:103AB000016840229143016080208001A96A81420F
:103AC00008D129680A681D4B13400B6029680A68F1
:103AD0001043086028005C3001214170047003200D
:103AE00000E0002007B0F0BD0000F8B504000F00B2
:103AF0001600202500963B000022C0214901FFF757
:103B00007AFF002812D100963B000022802120007D
:103B1000FFF70EFF002809D100963B000022C021CC
:103B2000C9002000FFF767FF002803D0206E05437F
:103B300025660320F2BD00005C000020FFDFFFFFD0
:103B4000FFB500220F2302932CE0052402E0704D04
:103B5000A842FAD16D462D78AC403443019D2C60CB
:103B60006C4C2668DC4326404D68ED0300D51E43AF
:103B7000684D2E606E6826404F68BF0300D51E4317
:103B80006E60AE6826404F68FF0200D51E43AE60EF
:103B9000EE6834404E68B60202D526001C0034435D
:103BA000EC60521C0B681C00D44000D18FE0012453
:103BB00094402340F5D055000327AF40FE430196C3
:103BC0004E68B707BF0F012F03D0B607B60F022EFE
:103BD0000ED18768019E3E40CF68AF403743876073
:103BE0004668A6434C68E706FF0F97403743476097
:103BF00094006E4674700C79A407A40F032C26D091
:103C0000C468019E26408C68AC403443C4600C7983
:103C1000A407A40F022C1AD1D408A4000419266A00
:103C200003966E4677781C263E406F463E70039E94
:103C3000B446029F6E463678B7406646BE43B446E9
:103C40000F696E463678B740664637432762076885
:103C50000324019E3E404F682740BC462F00654626
:103C6000BD40354305604D6826042E4099D001259E
:103C7000294E36682E43284F3E603E682E400196FE
:103C8000019E264E9708BF00F619019636680396E6
:103C90006E4677780C263E406F463E70039EB446D3
:103CA000029F6E463678B7406646BE439027FF05B2
:103CB000B84201D100244DE7194FB84201D1012487
:103CC00048E7184DA84200D041E7022442E7FFBD73
:103CD0000069084000D00120C0B27047002A01D01E
:103CE000816170478162704742690B0013401B0479
:103CF00091431943816170470B4A1368034000D117
:103D0000704780B5106000F0E9FA01BD00000000C6
:103D1000000C004800040140181002400800014057
:103D200000040048000800481404014038B50500AC
:103D300000F0F6F904000020C043854202D0044898
:103D400000782D1800F0ECF9001BA842FAD331BD21
:103D50004000002090420ED1A4460C001C430128D4
:103D6000644107D0994205D14C006415641C64403D
:103D700000D30C0364467047F8B50FB484B00091CB
:103D800048004015401C24D004A803C8A1A20CCAB6
:103D900002400B4001D1002A1BD006AA0CCA1C000D
:103DA00062005215521C14D006AA0CCA99A6C0CEA5
:103DB00016401F4001D1002E0BD002000B00002B3B
:103DC00056DA002680273F06B61A9F416A46C0C2CF
:103DD00050E0009841004A15521C03D1000301D065
:103DE00004A825E006A803C80B0059004E15761C50
:103DF00001D118031BD106A803C886A430CC044007
:103E00000D400BD1002C09D10098002A0FD10003DE
:103E10000DD100BF00BF7FA003C8F9E0002E09D17B
:103E2000180307D10098002A01D10003F1D006A899
:103E300003C8EDE004A803C876A430CC04400D40CC
:103E400005D1002C03D10E9A06A803C8CBE0009838
:103E5000002A07D1000305D104A80CC803C8FDF748
:103E6000A7FCD5E00020802109060B401900CFE017
:103E70006D460CC50026694F002F04DA80231B060F
:103E8000B21BBB411F006A460CCABB4204DA0020C9
:103E9000802109060C4018E00022614B002B04DA57
:103EA00080273F06B61A9F413B00684603C88B42F5
:103EB0000DDC01DB82420AD200BF00BF5949080075
:103EC000802109060C40044300202100A0E004A842
:103ED0000CC855A003C8FDF76BFC624B1A000C0020
:103EE00080231B061C40144300222300FDF7F6FA32
:103EF000FDF7B0FA0090FDF7E7FA04000D004CA0C2
:103F000003C822002B00FDF753FC04AA0CCAFDF7DE
:103F1000E5FA06000F0048A003C822002B00FDF7B9
:103F200047FC32003B00FDF7D9FA04000D006900A0
:103F300049080022424BFDF723FA02D206A803C823
:103F40004EE022002B002900FDF732FC06000F0096
:103F50003CA003C832003B00FDF72AFC3BA20CCA80
:103F6000FDF7BCFA32003B00FDF722FC02AA03C2B7
:103F700038A003C832003B00FDF71AFC37A20CCA78
:103F8000FDF7ACFA32003B00FDF712FC0022354B86
:103F9000FDF7A4FA22002B00FDF70AFC04000D0037
:103FA00002A803C822002B00FDF798FA00222E4B2E
:103FB000FDF794FA06000F0002A803C822002B00A8
:103FC000FDF7EFFA0022284BFDF788FA02000B00FC
:103FD00030003900FDF78BFB06AA0CCAFDF7E8FBA1
:103FE000009A0E9BD218FDF7FDF904000D0009A000
:103FF00003C82040294001D1002805D06900491597
:10400000491C03D1280301D100BF00BF20002900B3
:1040100009B0F0BDFFFFFFFFFFFFFF7F00C89CC09E
:1040200000C89C400000F07FFE822B654715F73FDB
:10403000000000F8422EE6BFF2E4D5BCE7E84BBE34
:104040000000903C112E5781A03F503F5843128CE6
:104050008F71BC3F4BE8A541B752013F0BBDF3DA6E
:10406000E8708C3F0000E03F0000F03F80B528483A
:104070002849016082214900416000218160E022DD
:10408000D200C260016141618022920082611022EF
:10409000C26101624162510281620721C162012154
:1040A000016308214163FFF7EFF8002801D000F019
:1040B00053F901BD10B586B00400142101A8FFF723
:1040C000DBF82068134988421FD11348090C826825
:1040D0000A43826082681140009100998021C902E0
:1040E00002680A4302600068014000910098E020E5
:1040F0000002019002200290012003900490002011
:10410000059001A90548FFF71BFD06B010BD000092
:10411000AC030020003800401410024000040048A6
:1041200001484068704700BF40000020FEB500F025
:104130002BF900F099F800F037F9FFF797FF00F03E
:104140008FF900F0E3F97F4D7F4C2000143029688F
:1041500088470120696B8847617B201DFFF78CF839
:1041600000F008FA00F01EFA207B012835D1002665
:104170006670686D0190608A002300220100019F33
:10418000B847686E009000BF74A00268022120004A
:10419000009B9847E67300BF71A5FEF7ABFAE07B82
:1041A0000528FAD1E673012020706078401C607009
:1041B000618A002300220800019FB8472A68022173
:1041C0002000009B9847802109029020C005FFF73E
:1041D0008BFD1420FFF7AAFDDFE7002842D1E07332
:1041E000208A6F6D002300220100B847EE6D00BFEA
:1041F0005CA00068B04700BF5BA000F0F9F920E0C8
:10420000E073082221000D31201D2B6E98472000FD
:104210003830FDF7BFFDFDF77BFFA0730200617929
:1042200053A000F0E5F9208A002300220100B847DE
:1042300053A00068B047802109029020C005FFF715
:1042400053FDFEF757FAE07B801ED9D0401E0128AF
:10425000F7D8208A002300220100B84749A000684F
:10426000B047EEE70020FEBD70B594B0302108A83D
:10427000FFF702F8684600210022002300241EC038
:104280001EC00226089601240B9410200C90109654
:1042900000251195A02080031290139508A800F026
:1042A000BBF9002801D000F057F8072000900196D4
:1042B000029503950121684600F074FB002801D0A7
:1042C00072B6FEE70494069504A800F03BFC0028B3
:1042D00001D072B6FEE714B070BD7047022800D05E
:1042E000704780B5FEF7D6F901BD00201749086078
:1042F00005201549C8737047002014490860022042
:104300001149C873704700201049086006200E4903
:10431000C873704700200D49086003200A49C8731C
:10432000704700200949086004200749C873704796
:1043300001B5074B01226946064800F0B7FC00981A
:1043400002BD0000885C000800000020D0040020AE
:10435000FFFF00002803002072B6FEE70300E80319
:104360000300E8030300E80373746172740A000039
:1043700025642D2D527373693A25640A00000000EC
:104380000300E8030300E80380B506480168102233
:104390000A430260002001F05DF801F07DF8002082
:1043A00002BD000000200240F8B586B01421684626
:1043B000FEF762FF8020800226490A6802430A60F5
:1043C0000A681040059005988020C0020A680243E0
:1043D0000A6009680840059005981F4C01222100D9
:1043E0001E48FFF77BFC802636029027FF0501223E
:1043F00031003800FFF772FC022000908820400353
:1044000001900125029569463800FFF799FB009459
:1044100001950295039569461048FFF791FBE80264
:10442000009000240194029569463800FFF788FB4C
:10443000009601950294039569463800FFF780FBCA
:1044400000220021052001F05CF8052001F05DF854
:1044500007B0F0BD14100240041000000004004832
:1044600080B5274827490160E121490241600021C8
:104470008160C16001610C2242618161C1610162A0
:10448000416200F0DDFB002801D0FFF765FF01BDB0
:1044900010B586B00400142101A8FEF7EDFE2068D7
:1044A000184988422AD118488021C90142680A4324
:1044B000426042681140009100998021890202689F
:1044C0000A4302600068014000910098C020C000CB
:1044D000019002200290002003900320049001200C
:1044E000059001A99020C005FFF72AFB00220021BA
:1044F0001B2001F006F81B2001F007F806B010BDE4
:1045000028030020003801401410024080B51448F0
:10451000144901601449416000218160134AC2605E
:10452000816101F017F8002801D0FFF715FF01BDE8
:1045300000680C49884200D0704780B510200C49B3
:104540000A6802430A600968084000900098002247
:104550000121112000F0D5FF112000F0D6FF01BD90
:104560006004002000100040BF1200004FC3000094
:104570001C1002401A4803210170EB22C271002274
:104580000272102242721748017070214173042197
:104590008173C27320210174082141743022827416
:1045A000C174704710B50020FDF776FA0C4C2078E6
:1045B000FDF7E9FA2000FDF732FB0A48FDF76CFB36
:1045C0000948FDF7ECFA00210020FDF720FB00214F
:1045D0000D20064A126D9047FEF735F810BD000019
:1045E000C0040020A804002000214A8F885C000835
:1045F0000EB4C0B5020003A801900020009001ABEA
:104600000121044878440C30FBF754FD029906B0B0
:10461000084700BF1D190000FEB5060019D0AD4CBB
:104620003078C00717D58027BF0260680C21014091
:10463000042909D060680C210140082941D1606833
:104640007908084088423CD12068074003D0706850
:10465000002800D19BE1307880071AD5F827FF4366
:1046600060680C21014007D060680C2101400829D6
:104670005AD16068C00357D42068800703D5F0681A
:10468000012800D083E1206807403069C00038432A
:1046900020603078000778D50227F0690028606A2A
:1046A00064D0012101436162FFF73AFD0500606AB1
:1046B00038406AD1FFF734FD401B0228F7D90320A8
:1046C000FEBD73687908012B09D0B348B34A002BAB
:1046D00009D0052B07D120688A0002432260206898
:1046E0000143216005E021680A40226021680840FA
:1046F0002060706800280BD0FFF712FD05002068CD
:104700003840A8D1FFF70CFD401B6528F7D3D6E74A
:10471000FFF706FD0500206838409CD0FFF700FD3C
:10472000401B6528F7D3CAE7F068002820680ED040
:10473000012101432160FFF7F3FC05002068800799
:10474000A1D4FFF7EDFC401B0228F7D9B7E7012100
:1047500088432060FFF7E4FC05002068800798D5B7
:10476000FFF7DEFC401B0228F7D9A8E701218843A8
:104770006062FFF7D5FC0500606A384005D0FFF79E
:10478000CFFC401B0228F7D999E70427306838404E
:1047900062D000200190B806E169014008D1E169CA
:1047A0000143E161E1690840009000980120019017
:1047B0007B480068C00512D479480068A10D014308
:1047C00077480160FFF7ACFC050075480068C0053C
:1047D00005D4FFF7A5FC401B6528F6D36FE7B0684A
:1047E000012808D0002801D1206A09E00528206AA4
:1047F00006D138432062206A01210143216205E08D
:10480000012188432062206AB8432062A4480090B6
:10481000B06800280CD0FFF783FC0500206A8007F1
:1048200013D4FFF77DFC401B00998842F6D346E77E
:10483000FFF776FC0500206A800706D5FFF770FCBD
:10484000401B00998842F6D339E70198002803D02D
:10485000E06994490140E1613078C0061DD5706976
:10486000F825ED43012837D1606B07436763606B20
:10487000012101436163FFF753FC0700606B800770
:1048800005D4FFF74DFCC01B0228F7D917E7606B72
:104890000540B069C00028436063306A002878D0C2
:1048A00061680C220A40082A5CD08027BF04924924
:1048B0000228206848D101402160FFF731FC050043
:1048C0002068384022D0FFF72BFC401B0228F7D984
:1048D000F5E600BF001002400421C9438842606B26
:1048E00002D101406163D2E707436763606B012136
:1048F00088436063FFF714FC0500606B8007CCD52C
:10490000FFF70EFC401B0228F7D9D8E6E06A0F211A
:104910008843F16A0143E162606878490140B06A06
:104920000843716A0143616020687908014321608E
:10493000FFF7F6FB0500206838402AD1FFF7F0FBAF
:10494000401B0228F7D9BAE601402160FFF7E8FBD7
:104950000500206838401CD0FFF7E2FB401B02280E
:10496000F7D9ACE6012812D06068E16A80225202D1
:104970000240736A9A420AD10907090FF26A91420A
:1049800005D1F02189030140B06A814201D00120A4
:10499000FEBD0020FEBD0000FFFFFBFFFFFFFEFF8E
:1049A00000700040F8B5040060D0009154480068E1
:1049B000C107C90F009881420CD2514801680122F9
:1049C0009143009A0A4302600068C107C90F00982A
:1049D00081424BD121684B4D022001420CD0490746
:1049E00004D56968E022D2000A436A606968F0224F
:1049F0009143A2680A436A6001272168394025D0A3
:104A00006168012902D12868800303E0022903D1EB
:104A10002868800103D429E02A68104026D06868FD
:104A20000322904301436960FFF77AFB0600686840
:104A30000C21014060688000814207D0FFF770FBC5
:104A4000801B17498842F2D30320F2BD2C480099FD
:104A500002683A4091420BD20168B943009A0A4376
:104A60000260006807400098874201D00120F2BD33
:104A70002078400705D5686823490140E06808436D
:104A8000686000F011F821496A681206120F895C0B
:104A9000C8401F490860002000F0DCFC0020F2BD87
:104AA00089130000FFFFFFEF1A4B19681A480C2208
:104AB0000A40082A00D0704730B50F2219A48D0C87
:104AC0001540645D9B6AC90307D500BF19A11A4050
:104AD000895CFCF7F1FD604330BD20000F4948437D
:104AE00030BD0B4800680E490A4A12685205520F41
:104AF000895CC84070470000FFFFFFFEFFFFC2FF58
:104B00000020024000100240FFF8FFFF5C5F000839
:104B10005C0000200410024000127A0000093D00F1
:104B20007C5F000802030405060708090A0B0C0D48
:104B30000E0F10100102030405060708090A0B0CEA
:104B40000D0E0F10F8B50400374D2068C00356D580
:104B500000200090802040052968014008D1296884
:104B600001432960296808400090009801200090C6
:104B70002E4F3868C00510D43868A90D014339603C
:104B8000FFF7CEFA06003868C00506D4FFF7C8FA6A
:104B9000801B6528F7D30320F2BDC0208000696820
:104BA0000140234F00291ED06268104081421AD074
:104BB000686838406968802252020A436A606968FE
:104BC0001C4A0A406A606860C0070CD5FFF7A8FA63
:104BD00006006868800706D4FFF7A2FA801B164912
:104BE0008842F6D3D7E76868074060683843686052
:104BF0000098002803D028681049014029602078D7
:104C0000C00705D5686903218843A168014369612C
:104C10002078800605D5686910218843E168014342
:104C200069610020F2BD00001C10024000700040CD
:104C3000FFFCFFFFFFFFFEFF89130000FFFFFFEFF8
:104C400038B5040014D0250074356868002803D1F5
:104C500028702000FFF71CFC242068602068016891
:104C6000012291430160200000F00AFA012801D1DD
:104C7000012032BD606A002802D0200000F085FAD1
:104C800020684168084A0A4042602068816808221A
:104C900091438160FFE72068016801220A430260B6
:104CA000200000F0D9FA32BDFFF7FFFFF1B584B064
:104CB0001C00743001904068202871D10D000FD085
:104CC00068460280002A0BD080277F010498806804
:104CD000B84207D104980069002803D1E80701D53C
:104CE00001205EE004987421405C012858D0012026
:104CF0000199087000260198C6602120019948603A
:104D0000FFF70EFA04995031029169460988029A18
:104D1000118069460988029A518004998968B942CC
:104D200003D104990969002901D029000025019ABD
:104D30001670049E029407000C0010E02178018593
:104D4000641C07E03068002CF8D12988C905C90D1A
:104D50000185AD1C300050304188491E4180300033
:104D60005030408800280AD0029800903B00002272
:104D70008021300000F0AAFA0028E3D009E03000DA
:104D80003B00029900910022402100F09FFA002888
:104D900001D0032005E0202001994860002000E0B8
:104DA000022005B0F0BDF8B584B004002068019081
:104DB000C06921680968019A92680092AB4A024072
:104DC0002500583520230B400293202303400393F2
:104DD00000264027002A0AD1002B0DD0029A002A73
:104DE0000AD0E968002901D0200088473AE1009AFA
:104DF000D20702D49E4A0A407AD0C20707D5CA0514
:104E000005D50122019B1A62AB6A1A43AA62820786
:104E100009D5009AD20706D5022223681A62AA6A27
:104E200004231343AB620422104208D0009BDB072B
:104E300005D523681A62AA6A02231343AB620822CB
:104E400010420AD0029B002B02D1009BDB0704D545
:104E500023681A62AB6A1A43AA627A01104007D02B
:104E6000480105D520680262A86A20210143A96291
:104E7000A86A002832D00398002807D0029800289A
:104E800004D0E968002901D020008847A86A216879
:104E90008968394002D12821014024D0200000F047
:104EA00099FA20688068074019D0EFF3108001213B
:104EB00081F3108821688A6840239A438A6080F3CE
:104EC0001088A86900280AD06A494163A86900F0DF
:104ED0007EFC002802D0A869416B8847C2E0200010
:104EE00000F099FCBEE0200000F095FCAE62B9E055
:104EF000AA68012A00D094E01022104200D011428A
:104F000000D18EE0019802621020C0430121C94304
:104F100022689268174049D0AA6913685B689BB2FF
:104F2000002BE4D05827E75BBB42E0DA6B80926944
:104F3000202A35D0EFF310820092012282F31088EC
:104F4000226813684C4F1F401760009A82F3108844
:104F5000EFF31082012383F3108823689F683940A0
:104F6000996082F31088EFF31081012282F3108898
:104F7000226893684027BB43936081F31088202107
:104F80006962AE60EFF31081012282F3108822681B
:104F900013681840106081F31088A86900F0F6FBD0
:104FA0005820205A6988411A89B236E05822A25AFC
:104FB0006B88D21A6B461A806A88002A52D06A46D9
:104FC0001288002A4ED0EFF310820192012282F360
:104FD000108822681368294F1F401760019A82F3D6
:104FE0001088EFF31082012383F3108823689F68F1
:104FF0003940996082F3108820216962AE60EE60CA
:10500000EFF31081012282F31088226813681840A0
:10501000106081F3108868460188200000F0FCFBD6
:1050200020E08022104207D00A4005D029690029DB
:1050300018D02000884715E0384013D00F4011D019
:10504000EFF31080012181F3108821680A68402362
:105050009A430A6080F31088202028622E61200085
:1050600000F0DBFB05B0F0BD000000000F08000001
:105070002001000441540008FFFEFFFFDFFEFFFF98
:10508000F8B5050000260024286801688A4A0A400D
:10509000A96811432A690A4369691143EA690A4305
:1050A00002604168854A0A40E968114341608168AD
:1050B000834A0A40A96911432A6A0A43826010227E
:1050C000804988420FD1804800688007800F0DD04A
:1050D000022806D003D3032809D1022207E00422C4
:1050E00005E0082203E0B149884200D10022B04F18
:1050F000B04880210902EB698B4222D1002A06D0F8
:10510000022A19D0042A19D0082A04D038E0FFF75F
:10511000E8FC010035D06A684800510840181100C9
:10512000FCF7CAFA80B201001039B94228D2074010
:105130000007400F38431BE00100ECE7FFF7B4FC29
:10514000E7E7002A06D0022A08D0042A13D0082A4A
:1051500014D015E0FFF7C5FC002812D069684A0892
:105160008018FCF7A9FA80B201001039B94207D2C1
:105170002968C86005E0FFF797FCEDE70800EDE758
:1051800001246E66AE662000F2BD2421415CC90791
:1051900006D501684A68884B1340826A1A434A6000
:1051A0002421415C890706D501684A68834B134076
:1051B000C26A1A434A602421415C490706D5016846
:1051C0004A687F4B1340026B1A434A602421415CBA
:1051D000090706D501684A687A4B1340426B1A43A7
:1051E0004A602421415CC90606D501688A68764B6D
:1051F0001340826B1A438A602421415C890606D5DC
:1052000001688A68134B1340C26B1A438A602421D9
:10521000415C490611D501684A686C4B1340026C29
:105220001A434A60026C80235B039A4205D14A68A4
:10523000674B1340426C1A434A602421415C0906C3
:1052400006D501684A687A4B1340806C1843486061
:1052500070470000FFDFFFFFF8B504000025743041
:10526000C560FEF75DFF0700724E2068006800070A
:1052700009D500963B00002280218903200000F020
:1052800025F800280DD12068006840070BD500964E
:105290003B0000228021C903200000F017F80028FD
:1052A00001D00320F2BD21007431202048608860C5
:1052B00025660D700020F2BDF369FFFFFFCFFFFFF1
:1052C000FFF4FFFF0038014030100240FEB5089F98
:1052D0008024240100250600019168460270029393
:1052E0003068C069019901400198814201D10120D3
:1052F00000E0002069460978884254D10020C0436C
:105300008742EDD0FEF70CFF0299401A874201D385
:10531000002F1FD1EFF31080012181F31088316835
:105320000A68454B13400B6080F31088EFF3108040
:10533000012181F3108831688A6801239A438A60C9
:1053400080F3108830007430202141608160057046
:105350000320FEBD306800684007C1D53068C069D1
:105360002040BDD030680462EFF31080012181F34A
:10537000108831680A68304B13400B6080F3108846
:10538000EFF31080012181F3108831688A680123CE
:105390009A438A6080F31088300074302021416085
:1053A0008160C160D3E70020FEBD000000440040E2
:1053B000F0FF000000127A00FFFFFDFFFFFFFEFF7D
:1053C000FFFFFBFFFF7FFFFFFFEFFFFFFFFFEFFF91
:1053D000FFFF9FFF10B5EFF31081012282F31088C9
:1053E00002681368154C1C40146081F31088EFF3B9
:1053F0001081012282F31088026893680124A3437C
:10540000936081F31088016E01290BD1EFF31081B5
:10541000012282F31088026813681024A3431360EA
:1054200081F310882021C16700210166416610BD0B
:10543000FFFFF7FFFFFFFF015FFEFFFFDFFEFFFF44
:1054400080B5406A0100523100220A810A8000F0D2
:10545000E2F901BD38B505000D4CFA208000217835
:10546000FCF72AF901000B480068FCF725F900F069
:1054700055F800280AD1042D08D200222900002066
:10548000C04300F03EF8A560002032BD012032BDCF
:10549000400000205C00002081B0012009490A681A
:1054A00002430A600A68104000900098802040057E
:1054B0004A6802434A60496808400090009801B079
:1054C000704700BF1810024010B5C20018231340E7
:1054D000FF249C40E2438907090E9940030004D44D
:1054E00018489B089B00C01806E0174B0007000FE8
:1054F000083880088000181803681A4011430160BA
:1055000010BD80B5FFF7E0FF01BD010005D401210A
:10551000C006C00E81400D480160704710B5401EA6
:1055200080214904884201D3012010BD084C6060ED
:1055300003210020C043FFF7C7FF0020A060072120
:10554000216010BD00E400E01CED00E000E100E09F
:1055500010E000E010B5040001D1012010BD3D2095
:10556000205C002804D13C2160542000FEF7E0FFBD
:10557000FFE702203D216054211D206800F0C0F8A3
:105580000120462160543E2160543F216054402157
:1055900060544121605442216054432160544421AD
:1055A0006054452160543D216054002010BDF8B581
:1055B00004002068002502260169314015D0C16829
:1055C000314012D00221C943016101212177806954
:1055D000800703D0200000F021F905E0200000F052
:1055E0001EF9200000F01CF92577206804270169C6
:1055F000394016D0C168394013D00421C943016134
:1056000026778069C0218900014003D0200000F086
:1056100005F905E0200000F002F9200000F000F993
:105620002577206808260169314014D0C1683140CF
:1056300011D00821C94301612777C069800703D0D1
:10564000200000F0EBF805E0200000F0E8F8200072
:1056500000F0E6F825772068102102690A4016D08C
:10566000C268114013D01021C94301612677C06977
:10567000C0218900014003D0200000F0CFF805E0F0
:10568000200000F0CCF8200000F0CAF82577206850
:10569000012102690A4008D0C268114005D00121E9
:1056A000C94301612000FEF718FE206880210269CD
:1056B0000A4008D0C268114005D08021C943016169
:1056C000200000F0AEF82068402102690A4008D0AE
:1056D000C268114005D04021C9430161200000F09B
:1056E000A1F82068202102690A4008D0C268114050
:1056F00005D02021C9430161200000F094F8F1BDDC
:10570000F0B506681A4A1B4B1B4C1C4DA84201D031
:10571000A04206D17027BE4337004E683E43A842E0
:105720000BD0A04209D0164CA04206D0984204D01B
:10573000904202D0144CA04203D1124C3440CE68A7
:1057400026438024A6434C69344304608C68C462B9
:105750000C688462A84206D0984204D0904202D0DD
:10576000094A904201D10969016301214161F0BDFB
:10577000004401400040014000040040002C014072
:1057800000200040FFFCFFFF0048014010B5002151
:105790002122825C022A05D00422826320228154C5
:1057A000012010BD026813680E24A3431360026831
:1057B00013680124A34313600122036C9C40C36B54
:1057C0005C602123C25420228154002010BD70B59A
:1057D0000022002401212123C35C022B03D00422D8
:1057E0008263012415E003681D680E26B5431D6021
:1057F00003681D688D431D60036C01259D40C36BCC
:105800005D602123C15420214254416B002900D006
:105810008847200070BD70477047704770477047D9
:10582000704770477047704770B40123002413E03D
:105830000168001D194202D04D466918491E0C60CE
:10584000091D121F042AFAD20D00960701D50C80FB
:10585000AD1C1A4000D02C700268001D002AE7D150
:1058600070BC704700000000000000000000F0BFA6
:105870000000000000000080000000000000008028
:105880000000000000000000000000C05294EEBFC5
:1058900000000048204E51BE000000F86467BCBC08
:1058A0000000000000000000000000208133EDBF78
:1058B00000000080B3DB14BE000000506706A3BCEC
:1058C0000000000000000000000000D0E9DCEBBF99
:1058D00000000008C39259BE00000080B0D3B8BCDD
:1058E000000000000000000000000070F98FEABF17
:1058F000000000C0A51028BE000000E8BFC0B0BC7A
:10590000000000000000000000000070284CE9BF0B
:1059100000000060134B42BE000000C03D20B8BC38
:10592000000000000000000000000050FA10E8BF76
:10593000000000C05FF62BBE000000905C71A7BCA9
:10594000000000000000000000000020FCDDE6BFB9
:10595000000000C0F8F154BE00000018E9F6B9BC20
:105960000000000000000000000000D0C3B2E5BF4E
:1059700000000070E43254BE00000050DB06B4BCEE
:10598000000000000000000000000010EF8EE4BFE7
:1059900000000020F36252BE000000C02A879ABCBB
:1059A0000000000000000000000000B02272E3BF11
:1059B000000000F0E8E056BE00000028352DBDBC18
:1059C0000000000000000000000000000A5CE2BFD0
:1059D000000000B0FA8E41BE00000040AE6FBDBCBA
:1059E000000000000000000000000000564CE1BF75
:1059F000000000F015CD5FBE00000000141C90BC3C
:105A0000000000000000000000000040BD42E0BFB8
:105A100000000030F93457BE000000E06C1E93BC5B
:105A20000000000000000000000000E0F57DDEBF87
:105A3000000000B08A535EBE00000080DA77AABC86
:105A40000000000000000000000000C09D81DCBFDD
:105A500000000000FFA226BE0000006057E2B0BCBC
:105A6000000000000000000000000060F98FDABFB5
:105A7000000000580A8151BE000000F05F60B8BC11
:105A800000000000000000000000000098A8D8BF3F
:105A9000000000607A7F45BE000000D05433A3BCF4
:105AA0000000000000000000000000600FCBD6BF27
:105AB000000000D091CB40BE000000406D1BA0BC98
:105AC0000000000000000000000000A0FBF6D4BFB2
:105AD00000000098C5CE52BE000000003A397EBCDE
